{
  "contractName": "Ownable",
  "abi": [
    {
      "inputs": [],
      "stateMutability": "nonpayable",
      "type": "constructor"
    },
    {
      "anonymous": false,
      "inputs": [
        {
          "indexed": false,
          "internalType": "address",
          "name": "newFeeAddress",
          "type": "address"
        }
      ],
      "name": "FeeAddressTransferred",
      "type": "event"
    },
    {
      "anonymous": false,
      "inputs": [
        {
          "indexed": false,
          "internalType": "address",
          "name": "newOwner",
          "type": "address"
        }
      ],
      "name": "OwnershipTransferred",
      "type": "event"
    },
    {
      "anonymous": false,
      "inputs": [
        {
          "indexed": false,
          "internalType": "address",
          "name": "newReserveAddress",
          "type": "address"
        }
      ],
      "name": "ReserveAddressTransferred",
      "type": "event"
    },
    {
      "inputs": [],
      "name": "feeAddress",
      "outputs": [
        {
          "internalType": "address",
          "name": "",
          "type": "address"
        }
      ],
      "stateMutability": "view",
      "type": "function"
    },
    {
      "inputs": [],
      "name": "owner",
      "outputs": [
        {
          "internalType": "address",
          "name": "",
          "type": "address"
        }
      ],
      "stateMutability": "view",
      "type": "function"
    },
    {
      "inputs": [],
      "name": "reserveAddress",
      "outputs": [
        {
          "internalType": "address",
          "name": "",
          "type": "address"
        }
      ],
      "stateMutability": "view",
      "type": "function"
    }
  ],
  "bytecode": "0x608060405234801561001057600080fd5b50336000806101000a81548173ffffffffffffffffffffffffffffffffffffffff021916908373ffffffffffffffffffffffffffffffffffffffff160217905550610188806100606000396000f3fe608060405234801561001057600080fd5b50600436106100415760003560e01c806341275358146100465780638da5cb5b1461007a578063f79ed94b146100ae575b600080fd5b61004e6100e2565b604051808273ffffffffffffffffffffffffffffffffffffffff16815260200191505060405180910390f35b610082610108565b604051808273ffffffffffffffffffffffffffffffffffffffff16815260200191505060405180910390f35b6100b661012c565b604051808273ffffffffffffffffffffffffffffffffffffffff16815260200191505060405180910390f35b600160009054906101000a900473ffffffffffffffffffffffffffffffffffffffff1681565b60008054906101000a900473ffffffffffffffffffffffffffffffffffffffff1681565b600260009054906101000a900473ffffffffffffffffffffffffffffffffffffffff168156fea2646970667358221220fcef6eb9437e6b0ff9212da37a8c228b5f12a61ea55f736c9474538c3c51301564736f6c63430007000033",
  "immutableReferences": {},
  "source": "// SPDX-License-Identifier: MIT\npragma solidity 0.7.0;\n\ncontract Ownable {\n\n  address public owner;\n  address public feeAddress;\n  address public reserveAddress;\n\n  event OwnershipTransferred(address newOwner);\n  event FeeAddressTransferred(address newFeeAddress);\n  event ReserveAddressTransferred(address newReserveAddress);\n\n  constructor() {\n    owner = msg.sender;\n  }\n\n  modifier onlyOwner() {\n    require(msg.sender == owner, 'You are not the owner!');\n    _;\n  }\n\n  function transferOwnership(address newOwner) onlyOwner internal {\n    owner = newOwner;\n  }\n\n  function transferFeeAddress(address newFeeAddress) onlyOwner internal {\n    feeAddress = newFeeAddress;\n  }\n\n  function transferReserveAddress(address newReserveAddress) onlyOwner internal {\n    reserveAddress = newReserveAddress;\n  }\n\n}",
  "sourcePath": "/home/caio/Desktop/projects/treasurybondsplus/tb-token/contracts/Ownable.sol",
  "compiler": {
    "name": "solc",
    "version": "0.7.0+commit.9e61f92b.Emscripten.clang"
  },
  "schemaVersion": "3.3.1",
  "updatedAt": "2020-11-25T21:38:31.767Z",
  "devdoc": {
    "kind": "dev",
    "methods": {},
    "version": 1
  },
  "userdoc": {
    "kind": "user",
    "methods": {},
    "version": 1
  }
}