{
  "contractName": "Ownable",
  "abi": [
    {
      "inputs": [],
      "stateMutability": "nonpayable",
      "type": "constructor"
    },
    {
      "anonymous": false,
      "inputs": [
        {
          "indexed": false,
          "internalType": "address",
          "name": "newBuyBack",
          "type": "address"
        }
      ],
      "name": "BuyBackTransferred",
      "type": "event"
    },
    {
      "anonymous": false,
      "inputs": [
        {
          "indexed": false,
          "internalType": "address",
          "name": "newOwner",
          "type": "address"
        }
      ],
      "name": "OwnershipTransferred",
      "type": "event"
    },
    {
      "anonymous": false,
      "inputs": [
        {
          "indexed": false,
          "internalType": "address",
          "name": "newTransactionFee",
          "type": "address"
        }
      ],
      "name": "TransactionFeeTransferred",
      "type": "event"
    },
    {
      "inputs": [],
      "name": "buyBack",
      "outputs": [
        {
          "internalType": "address",
          "name": "",
          "type": "address"
        }
      ],
      "stateMutability": "view",
      "type": "function"
    },
    {
      "inputs": [],
      "name": "owner",
      "outputs": [
        {
          "internalType": "address",
          "name": "",
          "type": "address"
        }
      ],
      "stateMutability": "view",
      "type": "function"
    },
    {
      "inputs": [],
      "name": "transactionFee",
      "outputs": [
        {
          "internalType": "address",
          "name": "",
          "type": "address"
        }
      ],
      "stateMutability": "view",
      "type": "function"
    }
  ],
  "bytecode": "0x608060405234801561001057600080fd5b50336000806101000a81548173ffffffffffffffffffffffffffffffffffffffff021916908373ffffffffffffffffffffffffffffffffffffffff160217905550610188806100606000396000f3fe608060405234801561001057600080fd5b50600436106100415760003560e01c80638da5cb5b146100465780639ed3edf01461007a578063acdf4f18146100ae575b600080fd5b61004e6100e2565b604051808273ffffffffffffffffffffffffffffffffffffffff16815260200191505060405180910390f35b610082610106565b604051808273ffffffffffffffffffffffffffffffffffffffff16815260200191505060405180910390f35b6100b661012c565b604051808273ffffffffffffffffffffffffffffffffffffffff16815260200191505060405180910390f35b60008054906101000a900473ffffffffffffffffffffffffffffffffffffffff1681565b600160009054906101000a900473ffffffffffffffffffffffffffffffffffffffff1681565b600260009054906101000a900473ffffffffffffffffffffffffffffffffffffffff168156fea26469706673582212208aba4196436ac0b95f1f80a355c964373aaa7ebadb0534130bb82aeaec17046b64736f6c63430007000033",
  "immutableReferences": {},
  "source": "// SPDX-License-Identifier: MIT\npragma solidity 0.7.0;\n\ncontract Ownable {\n\n  address public owner;\n  address public transactionFee;\n  address public buyBack;\n\n  event OwnershipTransferred(address newOwner);\n  event TransactionFeeTransferred(address newTransactionFee);\n  event BuyBackTransferred(address newBuyBack);\n\n  constructor() {\n    owner = msg.sender;\n  }\n\n  modifier onlyOwner() {\n    require(msg.sender == owner, 'You are not the owner!');\n    _;\n  }\n\n  function transferOwnership(address newOwner) onlyOwner internal {\n    owner = newOwner;\n  }\n\n  function transferTransactionFee(address newTransactionFee) onlyOwner internal {\n    transactionFee = newTransactionFee;\n  }\n\n  function transferBuyBack(address newBuyBack) onlyOwner internal {\n    buyBack = newBuyBack;\n  }\n\n}",
  "sourcePath": "/home/caio/Desktop/projects/treasurybondsplus/tb-token/contracts/Ownable.sol",
  "compiler": {
    "name": "solc",
    "version": "0.7.0+commit.9e61f92b.Emscripten.clang"
  },
  "schemaVersion": "3.3.1",
  "updatedAt": "2020-11-14T20:56:03.907Z",
  "devdoc": {
    "kind": "dev",
    "methods": {},
    "version": 1
  },
  "userdoc": {
    "kind": "user",
    "methods": {},
    "version": 1
  }
}