{
  "contractName": "TreasuryBondsPlus",
  "abi": [
    {
      "inputs": [
        {
          "internalType": "address",
          "name": "_feeAddress",
          "type": "address"
        },
        {
          "internalType": "address",
          "name": "_reserveAddress",
          "type": "address"
        }
      ],
      "stateMutability": "nonpayable",
      "type": "constructor"
    },
    {
      "anonymous": false,
      "inputs": [
        {
          "indexed": true,
          "internalType": "address",
          "name": "tokenOwner",
          "type": "address"
        },
        {
          "indexed": true,
          "internalType": "address",
          "name": "spender",
          "type": "address"
        },
        {
          "indexed": false,
          "internalType": "uint256",
          "name": "tokens",
          "type": "uint256"
        }
      ],
      "name": "Approval",
      "type": "event"
    },
    {
      "anonymous": false,
      "inputs": [
        {
          "indexed": true,
          "internalType": "address",
          "name": "account",
          "type": "address"
        },
        {
          "indexed": false,
          "internalType": "uint256",
          "name": "tokens",
          "type": "uint256"
        }
      ],
      "name": "Burn",
      "type": "event"
    },
    {
      "anonymous": false,
      "inputs": [
        {
          "indexed": true,
          "internalType": "address",
          "name": "tokenOwner",
          "type": "address"
        },
        {
          "indexed": false,
          "internalType": "uint256",
          "name": "tokens",
          "type": "uint256"
        }
      ],
      "name": "BuyBack",
      "type": "event"
    },
    {
      "anonymous": false,
      "inputs": [
        {
          "indexed": false,
          "internalType": "address",
          "name": "newFeeAddress",
          "type": "address"
        }
      ],
      "name": "FeeAddressTransferred",
      "type": "event"
    },
    {
      "anonymous": false,
      "inputs": [
        {
          "indexed": true,
          "internalType": "address",
          "name": "to",
          "type": "address"
        },
        {
          "indexed": false,
          "internalType": "uint256",
          "name": "tokens",
          "type": "uint256"
        }
      ],
      "name": "Mint",
      "type": "event"
    },
    {
      "anonymous": false,
      "inputs": [
        {
          "indexed": false,
          "internalType": "address",
          "name": "newOwner",
          "type": "address"
        }
      ],
      "name": "OwnershipTransferred",
      "type": "event"
    },
    {
      "anonymous": false,
      "inputs": [
        {
          "indexed": false,
          "internalType": "address",
          "name": "newReserveAddress",
          "type": "address"
        }
      ],
      "name": "ReserveAddressTransferred",
      "type": "event"
    },
    {
      "anonymous": false,
      "inputs": [
        {
          "indexed": true,
          "internalType": "address",
          "name": "from",
          "type": "address"
        },
        {
          "indexed": true,
          "internalType": "address",
          "name": "to",
          "type": "address"
        },
        {
          "indexed": false,
          "internalType": "uint256",
          "name": "tokens",
          "type": "uint256"
        }
      ],
      "name": "Transfer",
      "type": "event"
    },
    {
      "inputs": [],
      "name": "decimals",
      "outputs": [
        {
          "internalType": "uint8",
          "name": "",
          "type": "uint8"
        }
      ],
      "stateMutability": "view",
      "type": "function"
    },
    {
      "inputs": [],
      "name": "feeAddress",
      "outputs": [
        {
          "internalType": "address",
          "name": "",
          "type": "address"
        }
      ],
      "stateMutability": "view",
      "type": "function"
    },
    {
      "inputs": [],
      "name": "name",
      "outputs": [
        {
          "internalType": "string",
          "name": "",
          "type": "string"
        }
      ],
      "stateMutability": "view",
      "type": "function"
    },
    {
      "inputs": [],
      "name": "owner",
      "outputs": [
        {
          "internalType": "address",
          "name": "",
          "type": "address"
        }
      ],
      "stateMutability": "view",
      "type": "function"
    },
    {
      "inputs": [],
      "name": "reserveAddress",
      "outputs": [
        {
          "internalType": "address",
          "name": "",
          "type": "address"
        }
      ],
      "stateMutability": "view",
      "type": "function"
    },
    {
      "inputs": [],
      "name": "symbol",
      "outputs": [
        {
          "internalType": "string",
          "name": "",
          "type": "string"
        }
      ],
      "stateMutability": "view",
      "type": "function"
    },
    {
      "inputs": [],
      "name": "totalSupply",
      "outputs": [
        {
          "internalType": "uint256",
          "name": "",
          "type": "uint256"
        }
      ],
      "stateMutability": "view",
      "type": "function"
    },
    {
      "inputs": [
        {
          "internalType": "address",
          "name": "tokenOwner",
          "type": "address"
        }
      ],
      "name": "balanceOf",
      "outputs": [
        {
          "internalType": "uint256",
          "name": "balance",
          "type": "uint256"
        }
      ],
      "stateMutability": "view",
      "type": "function"
    },
    {
      "inputs": [
        {
          "internalType": "address",
          "name": "tokenOwner",
          "type": "address"
        },
        {
          "internalType": "address",
          "name": "spender",
          "type": "address"
        }
      ],
      "name": "allowance",
      "outputs": [
        {
          "internalType": "uint256",
          "name": "remaining",
          "type": "uint256"
        }
      ],
      "stateMutability": "view",
      "type": "function"
    },
    {
      "inputs": [
        {
          "internalType": "address",
          "name": "to",
          "type": "address"
        },
        {
          "internalType": "uint256",
          "name": "tokens",
          "type": "uint256"
        }
      ],
      "name": "transfer",
      "outputs": [
        {
          "internalType": "bool",
          "name": "success",
          "type": "bool"
        }
      ],
      "stateMutability": "nonpayable",
      "type": "function"
    },
    {
      "inputs": [
        {
          "internalType": "address",
          "name": "spender",
          "type": "address"
        },
        {
          "internalType": "uint256",
          "name": "tokens",
          "type": "uint256"
        }
      ],
      "name": "approve",
      "outputs": [
        {
          "internalType": "bool",
          "name": "success",
          "type": "bool"
        }
      ],
      "stateMutability": "nonpayable",
      "type": "function"
    },
    {
      "inputs": [
        {
          "internalType": "address",
          "name": "from",
          "type": "address"
        },
        {
          "internalType": "address",
          "name": "to",
          "type": "address"
        },
        {
          "internalType": "uint256",
          "name": "tokens",
          "type": "uint256"
        }
      ],
      "name": "transferFrom",
      "outputs": [
        {
          "internalType": "bool",
          "name": "success",
          "type": "bool"
        }
      ],
      "stateMutability": "nonpayable",
      "type": "function"
    },
    {
      "inputs": [
        {
          "internalType": "address",
          "name": "to",
          "type": "address"
        },
        {
          "internalType": "uint256",
          "name": "tokens",
          "type": "uint256"
        }
      ],
      "name": "mint",
      "outputs": [],
      "stateMutability": "nonpayable",
      "type": "function"
    },
    {
      "inputs": [
        {
          "internalType": "address",
          "name": "account",
          "type": "address"
        },
        {
          "internalType": "uint256",
          "name": "tokens",
          "type": "uint256"
        }
      ],
      "name": "burn",
      "outputs": [],
      "stateMutability": "nonpayable",
      "type": "function"
    },
    {
      "inputs": [
        {
          "internalType": "address",
          "name": "tokenOwner",
          "type": "address"
        },
        {
          "internalType": "uint256",
          "name": "tokens",
          "type": "uint256"
        }
      ],
      "name": "buyBack",
      "outputs": [
        {
          "internalType": "bool",
          "name": "success",
          "type": "bool"
        }
      ],
      "stateMutability": "nonpayable",
      "type": "function"
    },
    {
      "inputs": [
        {
          "internalType": "address",
          "name": "account",
          "type": "address"
        }
      ],
      "name": "newOwner",
      "outputs": [
        {
          "internalType": "bool",
          "name": "success",
          "type": "bool"
        }
      ],
      "stateMutability": "nonpayable",
      "type": "function"
    },
    {
      "inputs": [
        {
          "internalType": "address",
          "name": "account",
          "type": "address"
        }
      ],
      "name": "newFeeAddress",
      "outputs": [
        {
          "internalType": "bool",
          "name": "success",
          "type": "bool"
        }
      ],
      "stateMutability": "nonpayable",
      "type": "function"
    },
    {
      "inputs": [
        {
          "internalType": "address",
          "name": "account",
          "type": "address"
        }
      ],
      "name": "newReserveAddress",
      "outputs": [
        {
          "internalType": "bool",
          "name": "success",
          "type": "bool"
        }
      ],
      "stateMutability": "nonpayable",
      "type": "function"
    },
    {
      "inputs": [],
      "name": "close",
      "outputs": [],
      "stateMutability": "nonpayable",
      "type": "function"
    }
  ],
  "bytecode": "0x60806040523480156200001157600080fd5b5060405162002fb038038062002fb083398181016040528101906200003791906200021d565b336000806101000a81548173ffffffffffffffffffffffffffffffffffffffff021916908373ffffffffffffffffffffffffffffffffffffffff160217905550600860ff16600a0a6302faf0800260038190555081600160006101000a81548173ffffffffffffffffffffffffffffffffffffffff021916908373ffffffffffffffffffffffffffffffffffffffff16021790555080600260006101000a81548173ffffffffffffffffffffffffffffffffffffffff021916908373ffffffffffffffffffffffffffffffffffffffff160217905550600354600460008060009054906101000a900473ffffffffffffffffffffffffffffffffffffffff1673ffffffffffffffffffffffffffffffffffffffff1673ffffffffffffffffffffffffffffffffffffffff1681526020019081526020016000208190555060008054906101000a900473ffffffffffffffffffffffffffffffffffffffff1673ffffffffffffffffffffffffffffffffffffffff16600073ffffffffffffffffffffffffffffffffffffffff167fddf252ad1be2c89b69c2b068fc378daa952ba7f163c4a11628f55a4df523b3ef600354604051620001f691906200026f565b60405180910390a35050620002e4565b6000815190506200021781620002ca565b92915050565b600080604083850312156200023157600080fd5b6000620002418582860162000206565b9250506020620002548582860162000206565b9150509250929050565b6200026981620002c0565b82525050565b60006020820190506200028660008301846200025e565b92915050565b60006200029982620002a0565b9050919050565b600073ffffffffffffffffffffffffffffffffffffffff82169050919050565b6000819050919050565b620002d5816200028c565b8114620002e157600080fd5b50565b612cbc80620002f46000396000f3fe608060405234801561001057600080fd5b50600436106101215760003560e01c806370a08231116100ad5780639dc29fac116100715780639dc29fac14610320578063a9059cbb1461033c578063d1b8df221461036c578063dd62ed3e1461039c578063f79ed94b146103cc57610121565b806370a0823114610254578063775507561461028457806385952454146102b45780638da5cb5b146102e457806395d89b411461030257610121565b8063313ce567116100f4578063313ce567146101c257806340c10f19146101e057806341275358146101fc57806343d726d61461021a57806368a54abc1461022457610121565b806306fdde0314610126578063095ea7b31461014457806318160ddd1461017457806323b872dd14610192575b600080fd5b61012e6103ea565b60405161013b91906129ab565b60405180910390f35b61015e6004803603810190610159919061242e565b610423565b60405161016b9190612990565b60405180910390f35b61017c6105f4565b6040516101899190612b6d565b60405180910390f35b6101ac60048036038101906101a791906123df565b6105fe565b6040516101b99190612990565b60405180910390f35b6101ca6108a7565b6040516101d79190612b88565b60405180910390f35b6101fa60048036038101906101f5919061242e565b6108ac565b005b610204610aac565b6040516102119190612975565b60405180910390f35b610222610ad2565b005b61023e6004803603810190610239919061237a565b610b99565b60405161024b9190612990565b60405180910390f35b61026e6004803603810190610269919061237a565b610df4565b60405161027b9190612b6d565b60405180910390f35b61029e6004803603810190610299919061237a565b610e3d565b6040516102ab9190612990565b60405180910390f35b6102ce60048036038101906102c9919061237a565b611098565b6040516102db9190612990565b60405180910390f35b6102ec6112f0565b6040516102f99190612975565b60405180910390f35b61030a611314565b60405161031791906129ab565b60405180910390f35b61033a6004803603810190610335919061242e565b61134d565b005b6103566004803603810190610351919061242e565b6115cf565b6040516103639190612990565b60405180910390f35b6103866004803603810190610381919061242e565b61168e565b6040516103939190612990565b60405180910390f35b6103b660048036038101906103b191906123a3565b611967565b6040516103c39190612b6d565b60405180910390f35b6103d46119ee565b6040516103e19190612975565b60405180910390f35b6040518060400160405280601381526020017f547265617375727920426f6e647320506c75730000000000000000000000000081525081565b60008073ffffffffffffffffffffffffffffffffffffffff163373ffffffffffffffffffffffffffffffffffffffff161415610494576040517f08c379a000000000000000000000000000000000000000000000000000000000815260040161048b90612aed565b60405180910390fd5b600073ffffffffffffffffffffffffffffffffffffffff168373ffffffffffffffffffffffffffffffffffffffff161415610504576040517f08c379a00000000000000000000000000000000000000000000000000000000081526004016104fb90612aed565b60405180910390fd5b81600560003373ffffffffffffffffffffffffffffffffffffffff1673ffffffffffffffffffffffffffffffffffffffff16815260200190815260200160002060008573ffffffffffffffffffffffffffffffffffffffff1673ffffffffffffffffffffffffffffffffffffffff168152602001908152602001600020819055508273ffffffffffffffffffffffffffffffffffffffff163373ffffffffffffffffffffffffffffffffffffffff167f8c5be1e5ebec7d5bd14f71427d1e84f3dd0314c0f7b2291e5b200ac8c7c3b925846040516105e29190612b6d565b60405180910390a36001905092915050565b6000600354905090565b6000620f4240821015610646576040517f08c379a000000000000000000000000000000000000000000000000000000000815260040161063d90612acd565b60405180910390fd5b81600560008673ffffffffffffffffffffffffffffffffffffffff1673ffffffffffffffffffffffffffffffffffffffff16815260200190815260200160002060003373ffffffffffffffffffffffffffffffffffffffff1673ffffffffffffffffffffffffffffffffffffffff168152602001908152602001600020541015610705576040517f08c379a00000000000000000000000000000000000000000000000000000000081526004016106fc90612aad565b60405180910390fd5b3373ffffffffffffffffffffffffffffffffffffffff168373ffffffffffffffffffffffffffffffffffffffff1614610773576040517f08c379a000000000000000000000000000000000000000000000000000000000815260040161076a90612b4d565b60405180910390fd5b600061077e83611a14565b905061078c85858584611bdd565b61081b83600560008873ffffffffffffffffffffffffffffffffffffffff1673ffffffffffffffffffffffffffffffffffffffff16815260200190815260200160002060003373ffffffffffffffffffffffffffffffffffffffff1673ffffffffffffffffffffffffffffffffffffffff1681526020019081526020016000205461203190919063ffffffff16565b600560008773ffffffffffffffffffffffffffffffffffffffff1673ffffffffffffffffffffffffffffffffffffffff16815260200190815260200160002060003373ffffffffffffffffffffffffffffffffffffffff1673ffffffffffffffffffffffffffffffffffffffff1681526020019081526020016000208190555060019150509392505050565b600881565b60008054906101000a900473ffffffffffffffffffffffffffffffffffffffff1673ffffffffffffffffffffffffffffffffffffffff163373ffffffffffffffffffffffffffffffffffffffff161461093a576040517f08c379a000000000000000000000000000000000000000000000000000000000815260040161093190612a0d565b60405180910390fd5b600073ffffffffffffffffffffffffffffffffffffffff168273ffffffffffffffffffffffffffffffffffffffff1614156109aa576040517f08c379a00000000000000000000000000000000000000000000000000000000081526004016109a190612aed565b60405180910390fd5b6109fc81600460008573ffffffffffffffffffffffffffffffffffffffff1673ffffffffffffffffffffffffffffffffffffffff1681526020019081526020016000205461208690919063ffffffff16565b600460008473ffffffffffffffffffffffffffffffffffffffff1673ffffffffffffffffffffffffffffffffffffffff16815260200190815260200160002081905550610a548160035461208690919063ffffffff16565b6003819055508173ffffffffffffffffffffffffffffffffffffffff167f0f6798a560793a54c3bcfe86a93cde1e73087d944c0ea20544137d412139688582604051610aa09190612b6d565b60405180910390a25050565b600160009054906101000a900473ffffffffffffffffffffffffffffffffffffffff1681565b60008054906101000a900473ffffffffffffffffffffffffffffffffffffffff1673ffffffffffffffffffffffffffffffffffffffff163373ffffffffffffffffffffffffffffffffffffffff1614610b60576040517f08c379a0000000000000000000000000000000000000000000000000000000008152600401610b5790612a0d565b60405180910390fd5b60008054906101000a900473ffffffffffffffffffffffffffffffffffffffff1673ffffffffffffffffffffffffffffffffffffffff16ff5b60008060009054906101000a900473ffffffffffffffffffffffffffffffffffffffff1673ffffffffffffffffffffffffffffffffffffffff163373ffffffffffffffffffffffffffffffffffffffff1614610c2a576040517f08c379a0000000000000000000000000000000000000000000000000000000008152600401610c2190612a0d565b60405180910390fd5b600260009054906101000a900473ffffffffffffffffffffffffffffffffffffffff1673ffffffffffffffffffffffffffffffffffffffff168273ffffffffffffffffffffffffffffffffffffffff161415610cbb576040517f08c379a0000000000000000000000000000000000000000000000000000000008152600401610cb290612a6d565b60405180910390fd5b6000600260009054906101000a900473ffffffffffffffffffffffffffffffffffffffff169050610ceb836120db565b600460008273ffffffffffffffffffffffffffffffffffffffff1673ffffffffffffffffffffffffffffffffffffffff16815260200190815260200160002054600460008573ffffffffffffffffffffffffffffffffffffffff1673ffffffffffffffffffffffffffffffffffffffff168152602001908152602001600020819055506000600460008373ffffffffffffffffffffffffffffffffffffffff1673ffffffffffffffffffffffffffffffffffffffff168152602001908152602001600020819055507f5eff007c6337817d80018a4d4393b7fbf05f7ddaef26296514e9d69803d0a4a683604051610de29190612975565b60405180910390a16001915050919050565b6000600460008373ffffffffffffffffffffffffffffffffffffffff1673ffffffffffffffffffffffffffffffffffffffff168152602001908152602001600020549050919050565b60008060009054906101000a900473ffffffffffffffffffffffffffffffffffffffff1673ffffffffffffffffffffffffffffffffffffffff163373ffffffffffffffffffffffffffffffffffffffff1614610ece576040517f08c379a0000000000000000000000000000000000000000000000000000000008152600401610ec590612a0d565b60405180910390fd5b600160009054906101000a900473ffffffffffffffffffffffffffffffffffffffff1673ffffffffffffffffffffffffffffffffffffffff168273ffffffffffffffffffffffffffffffffffffffff161415610f5f576040517f08c379a0000000000000000000000000000000000000000000000000000000008152600401610f5690612a2d565b60405180910390fd5b6000600160009054906101000a900473ffffffffffffffffffffffffffffffffffffffff169050610f8f836121ad565b600460008273ffffffffffffffffffffffffffffffffffffffff1673ffffffffffffffffffffffffffffffffffffffff16815260200190815260200160002054600460008573ffffffffffffffffffffffffffffffffffffffff1673ffffffffffffffffffffffffffffffffffffffff168152602001908152602001600020819055506000600460008373ffffffffffffffffffffffffffffffffffffffff1673ffffffffffffffffffffffffffffffffffffffff168152602001908152602001600020819055507f33f3d15bb6789b8fb0057195841b2c83746ce2624176edc03fe18900dd206039836040516110869190612975565b60405180910390a16001915050919050565b60008060009054906101000a900473ffffffffffffffffffffffffffffffffffffffff1673ffffffffffffffffffffffffffffffffffffffff163373ffffffffffffffffffffffffffffffffffffffff1614611129576040517f08c379a000000000000000000000000000000000000000000000000000000000815260040161112090612a0d565b60405180910390fd5b60008054906101000a900473ffffffffffffffffffffffffffffffffffffffff1673ffffffffffffffffffffffffffffffffffffffff168273ffffffffffffffffffffffffffffffffffffffff1614156111b8576040517f08c379a00000000000000000000000000000000000000000000000000000000081526004016111af90612b2d565b60405180910390fd5b60008060009054906101000a900473ffffffffffffffffffffffffffffffffffffffff1690506111e78361227f565b600460008273ffffffffffffffffffffffffffffffffffffffff1673ffffffffffffffffffffffffffffffffffffffff16815260200190815260200160002054600460008573ffffffffffffffffffffffffffffffffffffffff1673ffffffffffffffffffffffffffffffffffffffff168152602001908152602001600020819055506000600460008373ffffffffffffffffffffffffffffffffffffffff1673ffffffffffffffffffffffffffffffffffffffff168152602001908152602001600020819055507f04dba622d284ed0014ee4b9a6a68386be1a4c08a4913ae272de89199cc686163836040516112de9190612975565b60405180910390a16001915050919050565b60008054906101000a900473ffffffffffffffffffffffffffffffffffffffff1681565b6040518060400160405280600381526020017f54422b000000000000000000000000000000000000000000000000000000000081525081565b60008054906101000a900473ffffffffffffffffffffffffffffffffffffffff1673ffffffffffffffffffffffffffffffffffffffff163373ffffffffffffffffffffffffffffffffffffffff16146113db576040517f08c379a00000000000000000000000000000000000000000000000000000000081526004016113d290612a0d565b60405180910390fd5b600073ffffffffffffffffffffffffffffffffffffffff168273ffffffffffffffffffffffffffffffffffffffff16141561144b576040517f08c379a000000000000000000000000000000000000000000000000000000000815260040161144290612aed565b60405180910390fd5b80600460008473ffffffffffffffffffffffffffffffffffffffff1673ffffffffffffffffffffffffffffffffffffffff1681526020019081526020016000205410156114cd576040517f08c379a00000000000000000000000000000000000000000000000000000000081526004016114c490612a4d565b60405180910390fd5b61151f81600460008573ffffffffffffffffffffffffffffffffffffffff1673ffffffffffffffffffffffffffffffffffffffff1681526020019081526020016000205461203190919063ffffffff16565b600460008473ffffffffffffffffffffffffffffffffffffffff1673ffffffffffffffffffffffffffffffffffffffff168152602001908152602001600020819055506115778160035461203190919063ffffffff16565b6003819055508173ffffffffffffffffffffffffffffffffffffffff167fcc16f5dbb4873280815c1ee09dbd06736cffcc184412cf7a71a0fdb75d397ca5826040516115c39190612b6d565b60405180910390a25050565b6000620f4240821015611617576040517f08c379a000000000000000000000000000000000000000000000000000000000815260040161160e90612acd565b60405180910390fd5b6000808054906101000a900473ffffffffffffffffffffffffffffffffffffffff1673ffffffffffffffffffffffffffffffffffffffff163373ffffffffffffffffffffffffffffffffffffffff16146116775761167483611a14565b90505b61168333858584611bdd565b600191505092915050565b60008060009054906101000a900473ffffffffffffffffffffffffffffffffffffffff1673ffffffffffffffffffffffffffffffffffffffff163373ffffffffffffffffffffffffffffffffffffffff161461171f576040517f08c379a000000000000000000000000000000000000000000000000000000000815260040161171690612a0d565b60405180910390fd5b81600460008573ffffffffffffffffffffffffffffffffffffffff1673ffffffffffffffffffffffffffffffffffffffff1681526020019081526020016000205410156117a1576040517f08c379a0000000000000000000000000000000000000000000000000000000008152600401611798906129cd565b60405180910390fd5b6117f382600460008673ffffffffffffffffffffffffffffffffffffffff1673ffffffffffffffffffffffffffffffffffffffff1681526020019081526020016000205461203190919063ffffffff16565b600460008573ffffffffffffffffffffffffffffffffffffffff1673ffffffffffffffffffffffffffffffffffffffff168152602001908152602001600020819055506118aa8260046000600260009054906101000a900473ffffffffffffffffffffffffffffffffffffffff1673ffffffffffffffffffffffffffffffffffffffff1673ffffffffffffffffffffffffffffffffffffffff1681526020019081526020016000205461208690919063ffffffff16565b60046000600260009054906101000a900473ffffffffffffffffffffffffffffffffffffffff1673ffffffffffffffffffffffffffffffffffffffff1673ffffffffffffffffffffffffffffffffffffffff168152602001908152602001600020819055508273ffffffffffffffffffffffffffffffffffffffff167f515a362443b428d4aab92057f742255c765d68033ba3f00847b57e323d0468d4836040516119559190612b6d565b60405180910390a26001905092915050565b6000600560008473ffffffffffffffffffffffffffffffffffffffff1673ffffffffffffffffffffffffffffffffffffffff16815260200190815260200160002060008373ffffffffffffffffffffffffffffffffffffffff1673ffffffffffffffffffffffffffffffffffffffff16815260200190815260200160002054905092915050565b600260009054906101000a900473ffffffffffffffffffffffffffffffffffffffff1681565b60008060648381611a2157fe5b0490506000600860ff16600a0a612710028411611a4d5760026001830281611a4557fe5b049050611bd3565b600860ff16600a0a61c350028411611a745760146007830281611a6c57fe5b049050611bd2565b600860ff16600a0a620186a0028411611a9c5760046001830281611a9457fe5b049050611bd1565b600860ff16600a0a620f4240028411611ac45760056001830281611abc57fe5b049050611bd0565b600860ff16600a0a62989680028411611aec5760326009830281611ae457fe5b049050611bcf565b600860ff16600a0a6302faf080028411611b155760146003830281611b0d57fe5b049050611bce565b600860ff16600a0a6305f5e100028411611b3e57600a6001830281611b3657fe5b049050611bcd565b600860ff16600a0a6311e1a300028411611b675760646007830281611b5f57fe5b049050611bcc565b600860ff16600a0a631dcd6500028411611b905760326003830281611b8857fe5b049050611bcb565b600860ff16600a0a633b9aca00028411611bb95760146001830281611bb157fe5b049050611bca565b60196001830281611bc657fe5b0490505b5b5b5b5b5b5b5b5b5b8092505050919050565b600073ffffffffffffffffffffffffffffffffffffffff168473ffffffffffffffffffffffffffffffffffffffff161415611c4d576040517f08c379a0000000000000000000000000000000000000000000000000000000008152600401611c4490612aed565b60405180910390fd5b600073ffffffffffffffffffffffffffffffffffffffff168373ffffffffffffffffffffffffffffffffffffffff161415611cbd576040517f08c379a0000000000000000000000000000000000000000000000000000000008152600401611cb490612aed565b60405180910390fd5b8273ffffffffffffffffffffffffffffffffffffffff168473ffffffffffffffffffffffffffffffffffffffff161415611d2c576040517f08c379a0000000000000000000000000000000000000000000000000000000008152600401611d23906129ed565b60405180910390fd5b81600460008673ffffffffffffffffffffffffffffffffffffffff1673ffffffffffffffffffffffffffffffffffffffff168152602001908152602001600020541015611dae576040517f08c379a0000000000000000000000000000000000000000000000000000000008152600401611da5906129cd565b60405180910390fd5b60008290506000821115611e9b578183039050611e358260046000600160009054906101000a900473ffffffffffffffffffffffffffffffffffffffff1673ffffffffffffffffffffffffffffffffffffffff1673ffffffffffffffffffffffffffffffffffffffff1681526020019081526020016000205461208690919063ffffffff16565b60046000600160009054906101000a900473ffffffffffffffffffffffffffffffffffffffff1673ffffffffffffffffffffffffffffffffffffffff1673ffffffffffffffffffffffffffffffffffffffff168152602001908152602001600020819055505b611eed83600460008873ffffffffffffffffffffffffffffffffffffffff1673ffffffffffffffffffffffffffffffffffffffff1681526020019081526020016000205461203190919063ffffffff16565b600460008773ffffffffffffffffffffffffffffffffffffffff1673ffffffffffffffffffffffffffffffffffffffff16815260200190815260200160002081905550611f8281600460008773ffffffffffffffffffffffffffffffffffffffff1673ffffffffffffffffffffffffffffffffffffffff1681526020019081526020016000205461208690919063ffffffff16565b600460008673ffffffffffffffffffffffffffffffffffffffff1673ffffffffffffffffffffffffffffffffffffffff168152602001908152602001600020819055508373ffffffffffffffffffffffffffffffffffffffff168573ffffffffffffffffffffffffffffffffffffffff167fddf252ad1be2c89b69c2b068fc378daa952ba7f163c4a11628f55a4df523b3ef856040516120229190612b6d565b60405180910390a35050505050565b60008082840390508381111561207c576040517f08c379a000000000000000000000000000000000000000000000000000000000815260040161207390612a8d565b60405180910390fd5b8091505092915050565b6000808284019050838110156120d1576040517f08c379a00000000000000000000000000000000000000000000000000000000081526004016120c890612b0d565b60405180910390fd5b8091505092915050565b60008054906101000a900473ffffffffffffffffffffffffffffffffffffffff1673ffffffffffffffffffffffffffffffffffffffff163373ffffffffffffffffffffffffffffffffffffffff1614612169576040517f08c379a000000000000000000000000000000000000000000000000000000000815260040161216090612a0d565b60405180910390fd5b80600260006101000a81548173ffffffffffffffffffffffffffffffffffffffff021916908373ffffffffffffffffffffffffffffffffffffffff16021790555050565b60008054906101000a900473ffffffffffffffffffffffffffffffffffffffff1673ffffffffffffffffffffffffffffffffffffffff163373ffffffffffffffffffffffffffffffffffffffff161461223b576040517f08c379a000000000000000000000000000000000000000000000000000000000815260040161223290612a0d565b60405180910390fd5b80600160006101000a81548173ffffffffffffffffffffffffffffffffffffffff021916908373ffffffffffffffffffffffffffffffffffffffff16021790555050565b60008054906101000a900473ffffffffffffffffffffffffffffffffffffffff1673ffffffffffffffffffffffffffffffffffffffff163373ffffffffffffffffffffffffffffffffffffffff161461230d576040517f08c379a000000000000000000000000000000000000000000000000000000000815260040161230490612a0d565b60405180910390fd5b806000806101000a81548173ffffffffffffffffffffffffffffffffffffffff021916908373ffffffffffffffffffffffffffffffffffffffff16021790555050565b60008135905061235f81612c58565b92915050565b60008135905061237481612c6f565b92915050565b60006020828403121561238c57600080fd5b600061239a84828501612350565b91505092915050565b600080604083850312156123b657600080fd5b60006123c485828601612350565b92505060206123d585828601612350565b9150509250929050565b6000806000606084860312156123f457600080fd5b600061240286828701612350565b935050602061241386828701612350565b925050604061242486828701612365565b9150509250925092565b6000806040838503121561244157600080fd5b600061244f85828601612350565b925050602061246085828601612365565b9150509250929050565b61247381612bbf565b82525050565b61248281612bd1565b82525050565b600061249382612ba3565b61249d8185612bae565b93506124ad818560208601612c14565b6124b681612c47565b840191505092915050565b60006124ce601483612bae565b91507f496e73756666696369656e7420746f6b656e73210000000000000000000000006000830152602082019050919050565b600061250e601c83612bae565b91507f416464726573736573206d75737420626520646966666572656e7421000000006000830152602082019050919050565b600061254e601683612bae565b91507f596f7520617265206e6f7420746865206f776e657221000000000000000000006000830152602082019050919050565b600061258e603a83612bae565b91507f546865206e65772066656541646472657373206d75737420626520646966666560008301527f72656e742066726f6d207468652063757272656e74206f6e652e0000000000006020830152604082019050919050565b60006125f4603183612bae565b91507f4163636f756e742062616c616e6365206973206c657373207468616e2074686560008301527f206e756d626572206f6620746f6b656e730000000000000000000000000000006020830152604082019050919050565b600061265a603e83612bae565b91507f546865206e6577207265736572766541646472657373206d757374206265206460008301527f6966666572656e742066726f6d207468652063757272656e74206f6e652e00006020830152604082019050919050565b60006126c0600e83612bae565b91507f53756220756e646572666c6f77210000000000000000000000000000000000006000830152602082019050919050565b6000612700602b83612bae565b91507f5175616e74697479206f6620746f6b656e7320616c6c6f77656420697320696e60008301527f73756666696369656e74210000000000000000000000000000000000000000006020830152604082019050919050565b6000612766603d83612bae565b91507f546865206d696e696d756d20616d6f756e74206f6620746f6b656e732074686160008301527f742063616e206265207472616e7366657272656420697320302e30312e0000006020830152604082019050919050565b60006127cc601083612bae565b91507f496e76616c6964206164647265737321000000000000000000000000000000006000830152602082019050919050565b600061280c600d83612bae565b91507f53756d206f766572666c6f7721000000000000000000000000000000000000006000830152602082019050919050565b600061284c604483612bae565b91507f5468652061646472657373206f6620746865206e6577206f776e6572206d757360008301527f7420626520646966666572656e742066726f6d207468652063757272656e742060208301527f6f6e652e000000000000000000000000000000000000000000000000000000006040830152606082019050919050565b60006128d8604783612bae565b91507f54686520726563656976696e672061646472657373206d75737420626520746860008301527f652073616d6520617320746865206f6e652063616c6c696e672074686520667560208301527f6e6374696f6e21000000000000000000000000000000000000000000000000006040830152606082019050919050565b61296081612bfd565b82525050565b61296f81612c07565b82525050565b600060208201905061298a600083018461246a565b92915050565b60006020820190506129a56000830184612479565b92915050565b600060208201905081810360008301526129c58184612488565b905092915050565b600060208201905081810360008301526129e6816124c1565b9050919050565b60006020820190508181036000830152612a0681612501565b9050919050565b60006020820190508181036000830152612a2681612541565b9050919050565b60006020820190508181036000830152612a4681612581565b9050919050565b60006020820190508181036000830152612a66816125e7565b9050919050565b60006020820190508181036000830152612a868161264d565b9050919050565b60006020820190508181036000830152612aa6816126b3565b9050919050565b60006020820190508181036000830152612ac6816126f3565b9050919050565b60006020820190508181036000830152612ae681612759565b9050919050565b60006020820190508181036000830152612b06816127bf565b9050919050565b60006020820190508181036000830152612b26816127ff565b9050919050565b60006020820190508181036000830152612b468161283f565b9050919050565b60006020820190508181036000830152612b66816128cb565b9050919050565b6000602082019050612b826000830184612957565b92915050565b6000602082019050612b9d6000830184612966565b92915050565b600081519050919050565b600082825260208201905092915050565b6000612bca82612bdd565b9050919050565b60008115159050919050565b600073ffffffffffffffffffffffffffffffffffffffff82169050919050565b6000819050919050565b600060ff82169050919050565b60005b83811015612c32578082015181840152602081019050612c17565b83811115612c41576000848401525b50505050565b6000601f19601f8301169050919050565b612c6181612bbf565b8114612c6c57600080fd5b50565b612c7881612bfd565b8114612c8357600080fd5b5056fea26469706673582212206d43e597403994acdd646fb84ff693496f126f7347e97da25e32191c575a952864736f6c63430007000033",
  "immutableReferences": {},
  "source": "// SPDX-License-Identifier: MIT\npragma solidity 0.7.0;\npragma experimental ABIEncoderV2;\nimport './IERC20.sol';\nimport './Ownable.sol';\nimport './SafeMathLib.sol';\n\ncontract TreasuryBondsPlus is Ownable, IERC20 {\n\n  using SafeMath for uint;\n\n  string public constant name = 'Treasury Bonds Plus';\n  string public constant symbol = 'TB+';\n  uint8 public constant decimals = 8;\n\n  uint private _totalSupply;\n\n  mapping(address => uint) private _balances;\n  mapping(address => mapping(address => uint)) private _allowed;\n\n  event Mint(address indexed to, uint tokens);\n  event Burn(address indexed account, uint tokens);\n  event BuyBack(address indexed tokenOwner, uint tokens);\n\n  constructor(address _feeAddress, address _reserveAddress) {\n    _totalSupply = 50000000 * 10 **uint(decimals);\n    feeAddress = _feeAddress;\n    reserveAddress = _reserveAddress;\n\n    _balances[owner] = _totalSupply;\n    emit Transfer(address(0), owner, _totalSupply);\n  }\n\n  function totalSupply() public override view returns (uint) {\n    return _totalSupply;\n  }\n\n  function balanceOf(address tokenOwner) public override view returns (uint balance) {\n    return _balances[tokenOwner];\n  }\n\n  function allowance(address tokenOwner, address spender) public override view returns (uint remaining) {\n    return _allowed[tokenOwner][spender];\n  }\n\n  function transfer(address to, uint tokens) public override returns (bool success) {\n    require(tokens >= 1000000, 'The minimum amount of tokens that can be transferred is 0.01.');\n\n    uint tax = 0;\n    if (msg.sender != owner) tax = _setTax(tokens);\n\n    _transfer(msg.sender, to, tokens, tax);\n    return true;\n  }\n\n  function approve(address spender, uint tokens) public override returns (bool success) {\n    require(msg.sender != address(0), 'Invalid address!');\n    require(spender != address(0), 'Invalid address!');\n\n    _allowed[msg.sender][spender] = tokens;\n    emit Approval(msg.sender, spender, tokens);\n    return true;\n  }\n\n  function transferFrom(address from, address to, uint tokens) public override returns (bool success) {\n    require(tokens >= 1000000, 'The minimum amount of tokens that can be transferred is 0.01.');\n    require(_allowed[from][msg.sender] >= tokens, 'Quantity of tokens allowed is insufficient!');\n    require(to == msg.sender, 'The receiving address must be the same as the one calling the function!');\n\n    uint tax = _setTax(tokens);\n    _transfer(from, to, tokens, tax);\n    _allowed[from][msg.sender] = _allowed[from][msg.sender].sub(tokens);\n    return true;\n  }\n\n  function mint(address to, uint tokens) public onlyOwner {\n    require(to != address(0), 'Invalid address!');\n\n    _balances[to] = _balances[to].add(tokens);\n    _totalSupply = _totalSupply.add(tokens);\n    emit Mint(to, tokens);\n  }\n\n  function burn(address account, uint tokens) public onlyOwner {\n    require(account != address(0), 'Invalid address!');\n    require(_balances[account] >= tokens, 'Account balance is less than the number of tokens');\n\n    _balances[account] = _balances[account].sub(tokens);\n    _totalSupply = _totalSupply.sub(tokens);\n    emit Burn(account, tokens);\n  }\n\n  function buyBack(address tokenOwner, uint tokens) public onlyOwner returns (bool success) {\n    require(_balances[tokenOwner] >= tokens, 'Insufficient tokens!');\n\n    _balances[tokenOwner] = _balances[tokenOwner].sub(tokens);\n    _balances[reserveAddress] = _balances[reserveAddress].add(tokens);\n    \n    emit BuyBack(tokenOwner, tokens);\n    return true;\n  }\n\n  function newOwner(address account) public onlyOwner returns (bool success) {\n    require(account != owner, 'The address of the new owner must be different from the current one.');\n\n    address oldOwner = owner;\n    transferOwnership(account);\n    _balances[account] = _balances[oldOwner];\n    _balances[oldOwner] = 0;\n    OwnershipTransferred(account);\n    return true;\n  }\n\n  function newFeeAddress(address account) public onlyOwner returns (bool success) {\n    require(account != feeAddress, 'The new feeAddress must be different from the current one.');\n\n    address oldFeeAddress = feeAddress;\n    transferFeeAddress(account);\n    _balances[account] = _balances[oldFeeAddress];\n    _balances[oldFeeAddress] = 0;\n    FeeAddressTransferred(account);\n    return true;\n  }\n\n  function newReserveAddress(address account) public onlyOwner returns (bool success) {\n    require(account != reserveAddress, 'The new reserveAddress must be different from the current one.');\n\n    address oldReserveAddress = reserveAddress;\n    transferReserveAddress(account);\n    _balances[account] = _balances[oldReserveAddress];\n    _balances[oldReserveAddress] = 0;\n    ReserveAddressTransferred(account);\n    return true;\n  }\n\n  function close() public onlyOwner {\n    selfdestruct(payable(owner));\n  }\n\n  function _setTax(uint tokens) private pure returns (uint) {\n    uint tokensInPercentage = tokens / 100;\n    uint tax;\n\n    if (tokens <= 10000 * 10 **uint(decimals)) tax = tokensInPercentage * 1 / 2; // 0,50%\n    else if (tokens <= 50000 * 10 **uint(decimals)) tax = tokensInPercentage * 7 / 20; // 0,35%\n    else if (tokens <= 100000 * 10 **uint(decimals)) tax = tokensInPercentage * 1 / 4; // 0,25%\n    else if (tokens <= 1000000 * 10 **uint(decimals)) tax = tokensInPercentage * 1 / 5; // 0,20%\n    else if (tokens <= 10000000 * 10 **uint(decimals)) tax = tokensInPercentage * 9 / 50; // 0,18%\n    else if (tokens <= 50000000 * 10 **uint(decimals)) tax = tokensInPercentage * 3 / 20; // 0,15%\n    else if (tokens <= 100000000 * 10 **uint(decimals)) tax = tokensInPercentage * 1 / 10; // 0,10%\n    else if (tokens <= 300000000 * 10 **uint(decimals)) tax = tokensInPercentage * 7 / 100; // 0,07%\n    else if (tokens <= 500000000 * 10 **uint(decimals)) tax = tokensInPercentage * 3 / 50; // 0,06%\n    else if (tokens <= 1000000000 * 10 **uint(decimals)) tax = tokensInPercentage * 1 / 20; // 0,05%\n    else tax = tokensInPercentage * 1 / 25; // 0,04%\n\n    return tax;\n  }\n\n  function _transfer(address sender, address recipient, uint tokens, uint tax) private {\n    require(sender != address(0), 'Invalid address!');\n    require(recipient != address(0), 'Invalid address!');\n    require(sender != recipient, 'Addresses must be different!');\n    require(_balances[sender] >= tokens, 'Insufficient tokens!');\n\n    uint tokensWithTax = tokens;\n    if (tax > 0) {\n      tokensWithTax = tokens - tax;\n      _balances[feeAddress] = _balances[feeAddress].add(tax);\n    }\n    \n    _balances[sender] = _balances[sender].sub(tokens);\n    _balances[recipient] = _balances[recipient].add(tokensWithTax);\n\n    emit Transfer(sender, recipient, tokens);\n  }\n\n}",
  "sourcePath": "/home/caio/Desktop/projects/treasurybondsplus/tb-token/contracts/TreasuryBondsPlus.sol",
  "compiler": {
    "name": "solc",
    "version": "0.7.0+commit.9e61f92b.Emscripten.clang"
  },
  "schemaVersion": "3.3.1",
  "updatedAt": "2020-11-25T22:26:34.449Z",
  "devdoc": {
    "kind": "dev",
    "methods": {},
    "version": 1
  },
  "userdoc": {
    "kind": "user",
    "methods": {},
    "version": 1
  }
}