{
  "contractName": "TreasuryBondsPlus",
  "abi": [
    {
      "inputs": [
        {
          "internalType": "address",
          "name": "_transactionFee",
          "type": "address"
        },
        {
          "internalType": "address",
          "name": "_buyBack",
          "type": "address"
        }
      ],
      "stateMutability": "nonpayable",
      "type": "constructor"
    },
    {
      "anonymous": false,
      "inputs": [
        {
          "indexed": true,
          "internalType": "address",
          "name": "tokenOwner",
          "type": "address"
        },
        {
          "indexed": true,
          "internalType": "address",
          "name": "spender",
          "type": "address"
        },
        {
          "indexed": false,
          "internalType": "uint256",
          "name": "tokens",
          "type": "uint256"
        }
      ],
      "name": "Approval",
      "type": "event"
    },
    {
      "anonymous": false,
      "inputs": [
        {
          "indexed": true,
          "internalType": "address",
          "name": "account",
          "type": "address"
        },
        {
          "indexed": false,
          "internalType": "uint256",
          "name": "tokens",
          "type": "uint256"
        }
      ],
      "name": "Burn",
      "type": "event"
    },
    {
      "anonymous": false,
      "inputs": [
        {
          "indexed": false,
          "internalType": "address",
          "name": "newBuyBack",
          "type": "address"
        }
      ],
      "name": "BuyBackTransferred",
      "type": "event"
    },
    {
      "anonymous": false,
      "inputs": [
        {
          "indexed": true,
          "internalType": "address",
          "name": "to",
          "type": "address"
        },
        {
          "indexed": false,
          "internalType": "uint256",
          "name": "tokens",
          "type": "uint256"
        }
      ],
      "name": "Mint",
      "type": "event"
    },
    {
      "anonymous": false,
      "inputs": [
        {
          "indexed": false,
          "internalType": "address",
          "name": "newOwner",
          "type": "address"
        }
      ],
      "name": "OwnershipTransferred",
      "type": "event"
    },
    {
      "anonymous": false,
      "inputs": [
        {
          "indexed": true,
          "internalType": "address",
          "name": "tokenOwner",
          "type": "address"
        },
        {
          "indexed": false,
          "internalType": "uint256",
          "name": "tokens",
          "type": "uint256"
        }
      ],
      "name": "Repurchase",
      "type": "event"
    },
    {
      "anonymous": false,
      "inputs": [
        {
          "indexed": false,
          "internalType": "address",
          "name": "newTransactionFee",
          "type": "address"
        }
      ],
      "name": "TransactionFeeTransferred",
      "type": "event"
    },
    {
      "anonymous": false,
      "inputs": [
        {
          "indexed": true,
          "internalType": "address",
          "name": "from",
          "type": "address"
        },
        {
          "indexed": true,
          "internalType": "address",
          "name": "to",
          "type": "address"
        },
        {
          "indexed": false,
          "internalType": "uint256",
          "name": "tokens",
          "type": "uint256"
        }
      ],
      "name": "Transfer",
      "type": "event"
    },
    {
      "inputs": [],
      "name": "buyBack",
      "outputs": [
        {
          "internalType": "address",
          "name": "",
          "type": "address"
        }
      ],
      "stateMutability": "view",
      "type": "function",
      "constant": true
    },
    {
      "inputs": [],
      "name": "decimals",
      "outputs": [
        {
          "internalType": "uint8",
          "name": "",
          "type": "uint8"
        }
      ],
      "stateMutability": "view",
      "type": "function",
      "constant": true
    },
    {
      "inputs": [],
      "name": "name",
      "outputs": [
        {
          "internalType": "string",
          "name": "",
          "type": "string"
        }
      ],
      "stateMutability": "view",
      "type": "function",
      "constant": true
    },
    {
      "inputs": [],
      "name": "owner",
      "outputs": [
        {
          "internalType": "address",
          "name": "",
          "type": "address"
        }
      ],
      "stateMutability": "view",
      "type": "function",
      "constant": true
    },
    {
      "inputs": [],
      "name": "symbol",
      "outputs": [
        {
          "internalType": "string",
          "name": "",
          "type": "string"
        }
      ],
      "stateMutability": "view",
      "type": "function",
      "constant": true
    },
    {
      "inputs": [],
      "name": "tokenPrice",
      "outputs": [
        {
          "internalType": "uint256",
          "name": "",
          "type": "uint256"
        }
      ],
      "stateMutability": "view",
      "type": "function",
      "constant": true
    },
    {
      "inputs": [],
      "name": "transactionFee",
      "outputs": [
        {
          "internalType": "address",
          "name": "",
          "type": "address"
        }
      ],
      "stateMutability": "view",
      "type": "function",
      "constant": true
    },
    {
      "inputs": [
        {
          "internalType": "uint8",
          "name": "",
          "type": "uint8"
        }
      ],
      "name": "yieldPerMonth",
      "outputs": [
        {
          "internalType": "uint8",
          "name": "",
          "type": "uint8"
        }
      ],
      "stateMutability": "view",
      "type": "function",
      "constant": true
    },
    {
      "inputs": [],
      "name": "totalSupply",
      "outputs": [
        {
          "internalType": "uint256",
          "name": "",
          "type": "uint256"
        }
      ],
      "stateMutability": "view",
      "type": "function",
      "constant": true
    },
    {
      "inputs": [
        {
          "internalType": "address",
          "name": "tokenOwner",
          "type": "address"
        }
      ],
      "name": "balanceOf",
      "outputs": [
        {
          "internalType": "uint256",
          "name": "balance",
          "type": "uint256"
        }
      ],
      "stateMutability": "view",
      "type": "function",
      "constant": true
    },
    {
      "inputs": [
        {
          "internalType": "address",
          "name": "tokenOwner",
          "type": "address"
        },
        {
          "internalType": "address",
          "name": "spender",
          "type": "address"
        }
      ],
      "name": "allowance",
      "outputs": [
        {
          "internalType": "uint256",
          "name": "remaining",
          "type": "uint256"
        }
      ],
      "stateMutability": "view",
      "type": "function",
      "constant": true
    },
    {
      "inputs": [
        {
          "internalType": "address",
          "name": "to",
          "type": "address"
        },
        {
          "internalType": "uint256",
          "name": "tokens",
          "type": "uint256"
        }
      ],
      "name": "transfer",
      "outputs": [
        {
          "internalType": "bool",
          "name": "success",
          "type": "bool"
        }
      ],
      "stateMutability": "nonpayable",
      "type": "function"
    },
    {
      "inputs": [
        {
          "internalType": "address",
          "name": "spender",
          "type": "address"
        },
        {
          "internalType": "uint256",
          "name": "tokens",
          "type": "uint256"
        }
      ],
      "name": "approve",
      "outputs": [
        {
          "internalType": "bool",
          "name": "success",
          "type": "bool"
        }
      ],
      "stateMutability": "nonpayable",
      "type": "function"
    },
    {
      "inputs": [
        {
          "internalType": "address",
          "name": "from",
          "type": "address"
        },
        {
          "internalType": "address",
          "name": "to",
          "type": "address"
        },
        {
          "internalType": "uint256",
          "name": "tokens",
          "type": "uint256"
        }
      ],
      "name": "transferFrom",
      "outputs": [
        {
          "internalType": "bool",
          "name": "success",
          "type": "bool"
        }
      ],
      "stateMutability": "nonpayable",
      "type": "function"
    },
    {
      "inputs": [
        {
          "internalType": "address",
          "name": "to",
          "type": "address"
        },
        {
          "internalType": "uint256",
          "name": "tokens",
          "type": "uint256"
        }
      ],
      "name": "mint",
      "outputs": [],
      "stateMutability": "nonpayable",
      "type": "function"
    },
    {
      "inputs": [
        {
          "internalType": "address",
          "name": "account",
          "type": "address"
        },
        {
          "internalType": "uint256",
          "name": "tokens",
          "type": "uint256"
        }
      ],
      "name": "burn",
      "outputs": [],
      "stateMutability": "nonpayable",
      "type": "function"
    },
    {
      "inputs": [
        {
          "internalType": "address",
          "name": "tokenOwner",
          "type": "address"
        },
        {
          "internalType": "uint256",
          "name": "tokens",
          "type": "uint256"
        }
      ],
      "name": "repurchase",
      "outputs": [
        {
          "internalType": "bool",
          "name": "success",
          "type": "bool"
        }
      ],
      "stateMutability": "nonpayable",
      "type": "function"
    },
    {
      "inputs": [
        {
          "internalType": "address",
          "name": "tokenOwner",
          "type": "address"
        }
      ],
      "name": "purchaseRecords",
      "outputs": [
        {
          "components": [
            {
              "internalType": "uint256",
              "name": "date",
              "type": "uint256"
            },
            {
              "internalType": "uint256",
              "name": "quantity",
              "type": "uint256"
            }
          ],
          "internalType": "struct TreasuryBondsPlus.PurchaseRecord[]",
          "name": "",
          "type": "tuple[]"
        }
      ],
      "stateMutability": "view",
      "type": "function",
      "constant": true
    },
    {
      "inputs": [
        {
          "internalType": "address",
          "name": "account",
          "type": "address"
        }
      ],
      "name": "approveKYC",
      "outputs": [
        {
          "internalType": "bool",
          "name": "success",
          "type": "bool"
        }
      ],
      "stateMutability": "nonpayable",
      "type": "function"
    },
    {
      "inputs": [
        {
          "internalType": "address",
          "name": "account",
          "type": "address"
        }
      ],
      "name": "getApprovedKYC",
      "outputs": [
        {
          "internalType": "bool",
          "name": "status",
          "type": "bool"
        }
      ],
      "stateMutability": "view",
      "type": "function",
      "constant": true
    },
    {
      "inputs": [
        {
          "internalType": "address",
          "name": "account",
          "type": "address"
        }
      ],
      "name": "newOwner",
      "outputs": [
        {
          "internalType": "bool",
          "name": "success",
          "type": "bool"
        }
      ],
      "stateMutability": "nonpayable",
      "type": "function"
    },
    {
      "inputs": [
        {
          "internalType": "address",
          "name": "account",
          "type": "address"
        }
      ],
      "name": "newTransactionFee",
      "outputs": [
        {
          "internalType": "bool",
          "name": "success",
          "type": "bool"
        }
      ],
      "stateMutability": "nonpayable",
      "type": "function"
    },
    {
      "inputs": [
        {
          "internalType": "address",
          "name": "account",
          "type": "address"
        }
      ],
      "name": "newBuyBack",
      "outputs": [
        {
          "internalType": "bool",
          "name": "success",
          "type": "bool"
        }
      ],
      "stateMutability": "nonpayable",
      "type": "function"
    }
  ],
  "bytecode": "0x60806040523480156200001157600080fd5b50604051620038f7380380620038f783398181016040528101906200003791906200034e565b336000806101000a81548173ffffffffffffffffffffffffffffffffffffffff021916908373ffffffffffffffffffffffffffffffffffffffff160217905550600260ff16600a0a62030d4002600381905550600160048190555081600160006101000a81548173ffffffffffffffffffffffffffffffffffffffff021916908373ffffffffffffffffffffffffffffffffffffffff16021790555080600260006101000a81548173ffffffffffffffffffffffffffffffffffffffff021916908373ffffffffffffffffffffffffffffffffffffffff1602179055506000600c90505b60788160ff16116200023d57600060178260ff16116200013f5760329050620001fc565b60238260ff16116200015557603c9050620001fb565b602f8260ff16116200016b5760469050620001fa565b603b8260ff1611620001815760509050620001f9565b60478260ff16116200019757605a9050620001f8565b60538260ff1611620001ad5760649050620001f7565b605f8260ff1611620001c35760789050620001f6565b606b8260ff1611620001d957608c9050620001f5565b60778260ff1611620001ef5760a09050620001f4565b60b490505b5b5b5b5b5b5b5b5b80600960008460ff1660ff16815260200190815260200160002060006101000a81548160ff021916908360ff1602179055505080806001019150506200011b565b50600354600560008060009054906101000a900473ffffffffffffffffffffffffffffffffffffffff1673ffffffffffffffffffffffffffffffffffffffff1673ffffffffffffffffffffffffffffffffffffffff1681526020019081526020016000208190555060008054906101000a900473ffffffffffffffffffffffffffffffffffffffff1673ffffffffffffffffffffffffffffffffffffffff16600073ffffffffffffffffffffffffffffffffffffffff167fddf252ad1be2c89b69c2b068fc378daa952ba7f163c4a11628f55a4df523b3ef600354604051620003279190620003a0565b60405180910390a3505062000415565b6000815190506200034881620003fb565b92915050565b600080604083850312156200036257600080fd5b6000620003728582860162000337565b9250506020620003858582860162000337565b9150509250929050565b6200039a81620003f1565b82525050565b6000602082019050620003b760008301846200038f565b92915050565b6000620003ca82620003d1565b9050919050565b600073ffffffffffffffffffffffffffffffffffffffff82169050919050565b6000819050919050565b6200040681620003bd565b81146200041257600080fd5b50565b6134d280620004256000396000f3fe608060405234801561001057600080fd5b506004361061014d5760003560e01c806370a08231116100c35780639dc29fac1161007c5780639dc29fac146104025780639ed3edf01461041e578063a9059cbb1461043c578063acdf4f181461046c578063dd62ed3e1461048a578063f4460e37146104ba5761014d565b806370a0823114610318578063715e0e4e146103485780637ff9b5961461037857806385952454146103965780638da5cb5b146103c657806395d89b41146103e45761014d565b806323b872dd1161011557806323b872dd1461021e578063313ce5671461024e57806340c10f191461026c5780634de970c81461028857806360506cba146102b857806364cd0d3e146102e85761014d565b806306fdde0314610152578063095ea7b3146101705780630e27324d146101a0578063108d8059146101d057806318160ddd14610200575b600080fd5b61015a6104ea565b6040516101679190613111565b60405180910390f35b61018a6004803603810190610185919061293d565b610523565b60405161019791906130f6565b60405180910390f35b6101ba60048036038101906101b59190612889565b6106f4565b6040516101c791906130f6565b60405180910390f35b6101ea60048036038101906101e59190612889565b610873565b6040516101f791906130f6565b60405180910390f35b610208610ace565b6040516102159190613333565b60405180910390f35b610238600480360381019061023391906128ee565b610ad8565b60405161024591906130f6565b60405180910390f35b610256610d88565b604051610263919061334e565b60405180910390f35b6102866004803603810190610281919061293d565b610d8d565b005b6102a2600480360381019061029d9190612979565b610f8d565b6040516102af919061334e565b60405180910390f35b6102d260048036038101906102cd9190612889565b610fad565b6040516102df91906130f6565b60405180910390f35b61030260048036038101906102fd9190612889565b611208565b60405161030f91906130d4565b60405180910390f35b610332600480360381019061032d9190612889565b611348565b60405161033f9190613333565b60405180910390f35b610362600480360381019061035d919061293d565b611391565b60405161036f91906130f6565b60405180910390f35b61038061166a565b60405161038d9190613333565b60405180910390f35b6103b060048036038101906103ab9190612889565b611670565b6040516103bd91906130f6565b60405180910390f35b6103ce6118c8565b6040516103db91906130b9565b60405180910390f35b6103ec6118ec565b6040516103f99190613111565b60405180910390f35b61041c6004803603810190610417919061293d565b611925565b005b610426611ba7565b60405161043391906130b9565b60405180910390f35b6104566004803603810190610451919061293d565b611bcd565b60405161046391906130f6565b60405180910390f35b610474611ce9565b60405161048191906130b9565b60405180910390f35b6104a4600480360381019061049f91906128b2565b611d0f565b6040516104b19190613333565b60405180910390f35b6104d460048036038101906104cf9190612889565b611d96565b6040516104e191906130f6565b60405180910390f35b6040518060400160405280601381526020017f547265617375727920426f6e647320506c75730000000000000000000000000081525081565b60008073ffffffffffffffffffffffffffffffffffffffff163373ffffffffffffffffffffffffffffffffffffffff161415610594576040517f08c379a000000000000000000000000000000000000000000000000000000000815260040161058b90613293565b60405180910390fd5b600073ffffffffffffffffffffffffffffffffffffffff168373ffffffffffffffffffffffffffffffffffffffff161415610604576040517f08c379a00000000000000000000000000000000000000000000000000000000081526004016105fb90613293565b60405180910390fd5b81600660003373ffffffffffffffffffffffffffffffffffffffff1673ffffffffffffffffffffffffffffffffffffffff16815260200190815260200160002060008573ffffffffffffffffffffffffffffffffffffffff1673ffffffffffffffffffffffffffffffffffffffff168152602001908152602001600020819055508273ffffffffffffffffffffffffffffffffffffffff163373ffffffffffffffffffffffffffffffffffffffff167f8c5be1e5ebec7d5bd14f71427d1e84f3dd0314c0f7b2291e5b200ac8c7c3b925846040516106e29190613333565b60405180910390a36001905092915050565b60008060009054906101000a900473ffffffffffffffffffffffffffffffffffffffff1673ffffffffffffffffffffffffffffffffffffffff163373ffffffffffffffffffffffffffffffffffffffff1614610785576040517f08c379a000000000000000000000000000000000000000000000000000000000815260040161077c90613173565b60405180910390fd5b600860008373ffffffffffffffffffffffffffffffffffffffff1673ffffffffffffffffffffffffffffffffffffffff16815260200190815260200160002060009054906101000a900460ff1615610812576040517f08c379a000000000000000000000000000000000000000000000000000000000815260040161080990613213565b60405180910390fd5b6001600860008473ffffffffffffffffffffffffffffffffffffffff1673ffffffffffffffffffffffffffffffffffffffff16815260200190815260200160002060006101000a81548160ff02191690831515021790555060019050919050565b60008060009054906101000a900473ffffffffffffffffffffffffffffffffffffffff1673ffffffffffffffffffffffffffffffffffffffff163373ffffffffffffffffffffffffffffffffffffffff1614610904576040517f08c379a00000000000000000000000000000000000000000000000000000000081526004016108fb90613173565b60405180910390fd5b600160009054906101000a900473ffffffffffffffffffffffffffffffffffffffff1673ffffffffffffffffffffffffffffffffffffffff168273ffffffffffffffffffffffffffffffffffffffff161415610995576040517f08c379a000000000000000000000000000000000000000000000000000000000815260040161098c906132b3565b60405180910390fd5b6000600160009054906101000a900473ffffffffffffffffffffffffffffffffffffffff1690506109c583611e7b565b600560008273ffffffffffffffffffffffffffffffffffffffff1673ffffffffffffffffffffffffffffffffffffffff16815260200190815260200160002054600560008573ffffffffffffffffffffffffffffffffffffffff1673ffffffffffffffffffffffffffffffffffffffff168152602001908152602001600020819055506000600560008373ffffffffffffffffffffffffffffffffffffffff1673ffffffffffffffffffffffffffffffffffffffff168152602001908152602001600020819055507f30ff13668da6fd6f0483420c6605ea18139edffaf0e9f3433cfb20ba993d869e83604051610abc91906130b9565b60405180910390a16001915050919050565b6000600354905090565b6000600260ff16600a0a606402821015610b27576040517f08c379a0000000000000000000000000000000000000000000000000000000008152600401610b1e906131d3565b60405180910390fd5b81600660008673ffffffffffffffffffffffffffffffffffffffff1673ffffffffffffffffffffffffffffffffffffffff16815260200190815260200160002060003373ffffffffffffffffffffffffffffffffffffffff1673ffffffffffffffffffffffffffffffffffffffff168152602001908152602001600020541015610be6576040517f08c379a0000000000000000000000000000000000000000000000000000000008152600401610bdd90613253565b60405180910390fd5b3373ffffffffffffffffffffffffffffffffffffffff168373ffffffffffffffffffffffffffffffffffffffff1614610c54576040517f08c379a0000000000000000000000000000000000000000000000000000000008152600401610c4b90613313565b60405180910390fd5b6000610c5f83611f4d565b9050610c6d85858584612116565b610cfc83600660008873ffffffffffffffffffffffffffffffffffffffff1673ffffffffffffffffffffffffffffffffffffffff16815260200190815260200160002060003373ffffffffffffffffffffffffffffffffffffffff1673ffffffffffffffffffffffffffffffffffffffff168152602001908152602001600020546125fd90919063ffffffff16565b600660008773ffffffffffffffffffffffffffffffffffffffff1673ffffffffffffffffffffffffffffffffffffffff16815260200190815260200160002060003373ffffffffffffffffffffffffffffffffffffffff1673ffffffffffffffffffffffffffffffffffffffff1681526020019081526020016000208190555060019150509392505050565b600281565b60008054906101000a900473ffffffffffffffffffffffffffffffffffffffff1673ffffffffffffffffffffffffffffffffffffffff163373ffffffffffffffffffffffffffffffffffffffff1614610e1b576040517f08c379a0000000000000000000000000000000000000000000000000000000008152600401610e1290613173565b60405180910390fd5b600073ffffffffffffffffffffffffffffffffffffffff168273ffffffffffffffffffffffffffffffffffffffff161415610e8b576040517f08c379a0000000000000000000000000000000000000000000000000000000008152600401610e8290613293565b60405180910390fd5b610edd81600560008573ffffffffffffffffffffffffffffffffffffffff1673ffffffffffffffffffffffffffffffffffffffff1681526020019081526020016000205461265290919063ffffffff16565b600560008473ffffffffffffffffffffffffffffffffffffffff1673ffffffffffffffffffffffffffffffffffffffff16815260200190815260200160002081905550610f358160035461265290919063ffffffff16565b6003819055508173ffffffffffffffffffffffffffffffffffffffff167f0f6798a560793a54c3bcfe86a93cde1e73087d944c0ea20544137d412139688582604051610f819190613333565b60405180910390a25050565b60096020528060005260406000206000915054906101000a900460ff1681565b60008060009054906101000a900473ffffffffffffffffffffffffffffffffffffffff1673ffffffffffffffffffffffffffffffffffffffff163373ffffffffffffffffffffffffffffffffffffffff161461103e576040517f08c379a000000000000000000000000000000000000000000000000000000000815260040161103590613173565b60405180910390fd5b600260009054906101000a900473ffffffffffffffffffffffffffffffffffffffff1673ffffffffffffffffffffffffffffffffffffffff168273ffffffffffffffffffffffffffffffffffffffff1614156110cf576040517f08c379a00000000000000000000000000000000000000000000000000000000081526004016110c6906131b3565b60405180910390fd5b6000600260009054906101000a900473ffffffffffffffffffffffffffffffffffffffff1690506110ff836126a7565b600560008273ffffffffffffffffffffffffffffffffffffffff1673ffffffffffffffffffffffffffffffffffffffff16815260200190815260200160002054600560008573ffffffffffffffffffffffffffffffffffffffff1673ffffffffffffffffffffffffffffffffffffffff168152602001908152602001600020819055506000600560008373ffffffffffffffffffffffffffffffffffffffff1673ffffffffffffffffffffffffffffffffffffffff168152602001908152602001600020819055507f9824302a34d726b4e02bb58c1250c2d20098da4aa3a39e03c76b1cd7b347b101836040516111f691906130b9565b60405180910390a16001915050919050565b606060008054906101000a900473ffffffffffffffffffffffffffffffffffffffff1673ffffffffffffffffffffffffffffffffffffffff163373ffffffffffffffffffffffffffffffffffffffff1614611298576040517f08c379a000000000000000000000000000000000000000000000000000000000815260040161128f90613173565b60405180910390fd5b600760008373ffffffffffffffffffffffffffffffffffffffff1673ffffffffffffffffffffffffffffffffffffffff168152602001908152602001600020805480602002602001604051908101604052809291908181526020016000905b8282101561133d578382906000526020600020906002020160405180604001604052908160008201548152602001600182015481525050815260200190600101906112f7565b505050509050919050565b6000600560008373ffffffffffffffffffffffffffffffffffffffff1673ffffffffffffffffffffffffffffffffffffffff168152602001908152602001600020549050919050565b60008060009054906101000a900473ffffffffffffffffffffffffffffffffffffffff1673ffffffffffffffffffffffffffffffffffffffff163373ffffffffffffffffffffffffffffffffffffffff1614611422576040517f08c379a000000000000000000000000000000000000000000000000000000000815260040161141990613173565b60405180910390fd5b81600560008573ffffffffffffffffffffffffffffffffffffffff1673ffffffffffffffffffffffffffffffffffffffff1681526020019081526020016000205410156114a4576040517f08c379a000000000000000000000000000000000000000000000000000000000815260040161149b90613133565b60405180910390fd5b6114f682600560008673ffffffffffffffffffffffffffffffffffffffff1673ffffffffffffffffffffffffffffffffffffffff168152602001908152602001600020546125fd90919063ffffffff16565b600560008573ffffffffffffffffffffffffffffffffffffffff1673ffffffffffffffffffffffffffffffffffffffff168152602001908152602001600020819055506115ad8260056000600260009054906101000a900473ffffffffffffffffffffffffffffffffffffffff1673ffffffffffffffffffffffffffffffffffffffff1673ffffffffffffffffffffffffffffffffffffffff1681526020019081526020016000205461265290919063ffffffff16565b60056000600260009054906101000a900473ffffffffffffffffffffffffffffffffffffffff1673ffffffffffffffffffffffffffffffffffffffff1673ffffffffffffffffffffffffffffffffffffffff168152602001908152602001600020819055508273ffffffffffffffffffffffffffffffffffffffff167fc5e825e1bdb0c14558661955f4084bc41cfd21d14569ab41e57db5cf85725a5c836040516116589190613333565b60405180910390a26001905092915050565b60045481565b60008060009054906101000a900473ffffffffffffffffffffffffffffffffffffffff1673ffffffffffffffffffffffffffffffffffffffff163373ffffffffffffffffffffffffffffffffffffffff1614611701576040517f08c379a00000000000000000000000000000000000000000000000000000000081526004016116f890613173565b60405180910390fd5b60008054906101000a900473ffffffffffffffffffffffffffffffffffffffff1673ffffffffffffffffffffffffffffffffffffffff168273ffffffffffffffffffffffffffffffffffffffff161415611790576040517f08c379a0000000000000000000000000000000000000000000000000000000008152600401611787906132f3565b60405180910390fd5b60008060009054906101000a900473ffffffffffffffffffffffffffffffffffffffff1690506117bf83612779565b600560008273ffffffffffffffffffffffffffffffffffffffff1673ffffffffffffffffffffffffffffffffffffffff16815260200190815260200160002054600560008573ffffffffffffffffffffffffffffffffffffffff1673ffffffffffffffffffffffffffffffffffffffff168152602001908152602001600020819055506000600560008373ffffffffffffffffffffffffffffffffffffffff1673ffffffffffffffffffffffffffffffffffffffff168152602001908152602001600020819055507f04dba622d284ed0014ee4b9a6a68386be1a4c08a4913ae272de89199cc686163836040516118b691906130b9565b60405180910390a16001915050919050565b60008054906101000a900473ffffffffffffffffffffffffffffffffffffffff1681565b6040518060400160405280600381526020017f54422b000000000000000000000000000000000000000000000000000000000081525081565b60008054906101000a900473ffffffffffffffffffffffffffffffffffffffff1673ffffffffffffffffffffffffffffffffffffffff163373ffffffffffffffffffffffffffffffffffffffff16146119b3576040517f08c379a00000000000000000000000000000000000000000000000000000000081526004016119aa90613173565b60405180910390fd5b600073ffffffffffffffffffffffffffffffffffffffff168273ffffffffffffffffffffffffffffffffffffffff161415611a23576040517f08c379a0000000000000000000000000000000000000000000000000000000008152600401611a1a90613293565b60405180910390fd5b80600560008473ffffffffffffffffffffffffffffffffffffffff1673ffffffffffffffffffffffffffffffffffffffff168152602001908152602001600020541015611aa5576040517f08c379a0000000000000000000000000000000000000000000000000000000008152600401611a9c90613193565b60405180910390fd5b611af781600560008573ffffffffffffffffffffffffffffffffffffffff1673ffffffffffffffffffffffffffffffffffffffff168152602001908152602001600020546125fd90919063ffffffff16565b600560008473ffffffffffffffffffffffffffffffffffffffff1673ffffffffffffffffffffffffffffffffffffffff16815260200190815260200160002081905550611b4f816003546125fd90919063ffffffff16565b6003819055508173ffffffffffffffffffffffffffffffffffffffff167fcc16f5dbb4873280815c1ee09dbd06736cffcc184412cf7a71a0fdb75d397ca582604051611b9b9190613333565b60405180910390a25050565b600160009054906101000a900473ffffffffffffffffffffffffffffffffffffffff1681565b6000806000905060008054906101000a900473ffffffffffffffffffffffffffffffffffffffff1673ffffffffffffffffffffffffffffffffffffffff163373ffffffffffffffffffffffffffffffffffffffff1614611c8457600260ff16600a0a606402831015611c74576040517f08c379a0000000000000000000000000000000000000000000000000000000008152600401611c6b90613233565b60405180910390fd5b611c7d83611f4d565b9050611cd2565b600260ff16600a0a600102831015611cd1576040517f08c379a0000000000000000000000000000000000000000000000000000000008152600401611cc890613273565b60405180910390fd5b5b611cde33858584612116565b600191505092915050565b600260009054906101000a900473ffffffffffffffffffffffffffffffffffffffff1681565b6000600660008473ffffffffffffffffffffffffffffffffffffffff1673ffffffffffffffffffffffffffffffffffffffff16815260200190815260200160002060008373ffffffffffffffffffffffffffffffffffffffff1673ffffffffffffffffffffffffffffffffffffffff16815260200190815260200160002054905092915050565b60008060009054906101000a900473ffffffffffffffffffffffffffffffffffffffff1673ffffffffffffffffffffffffffffffffffffffff163373ffffffffffffffffffffffffffffffffffffffff1614611e27576040517f08c379a0000000000000000000000000000000000000000000000000000000008152600401611e1e90613173565b60405180910390fd5b600860008373ffffffffffffffffffffffffffffffffffffffff1673ffffffffffffffffffffffffffffffffffffffff16815260200190815260200160002060009054906101000a900460ff169050919050565b60008054906101000a900473ffffffffffffffffffffffffffffffffffffffff1673ffffffffffffffffffffffffffffffffffffffff163373ffffffffffffffffffffffffffffffffffffffff1614611f09576040517f08c379a0000000000000000000000000000000000000000000000000000000008152600401611f0090613173565b60405180910390fd5b80600160006101000a81548173ffffffffffffffffffffffffffffffffffffffff021916908373ffffffffffffffffffffffffffffffffffffffff16021790555050565b60008060648381611f5a57fe5b0490506000600260ff16600a0a612710028411611f865760026001830281611f7e57fe5b04905061210c565b600260ff16600a0a61c350028411611fad5760146007830281611fa557fe5b04905061210b565b600260ff16600a0a620186a0028411611fd55760046001830281611fcd57fe5b04905061210a565b600260ff16600a0a620f4240028411611ffd5760056001830281611ff557fe5b049050612109565b600260ff16600a0a62989680028411612025576032600983028161201d57fe5b049050612108565b600260ff16600a0a6302faf08002841161204e576014600383028161204657fe5b049050612107565b600260ff16600a0a6305f5e10002841161207757600a600183028161206f57fe5b049050612106565b600260ff16600a0a6311e1a3000284116120a0576064600783028161209857fe5b049050612105565b600260ff16600a0a631dcd65000284116120c957603260038302816120c157fe5b049050612104565b600260ff16600a0a633b9aca000284116120f257601460018302816120ea57fe5b049050612103565b601960018302816120ff57fe5b0490505b5b5b5b5b5b5b5b5b5b8092505050919050565b600073ffffffffffffffffffffffffffffffffffffffff168473ffffffffffffffffffffffffffffffffffffffff161415612186576040517f08c379a000000000000000000000000000000000000000000000000000000000815260040161217d90613293565b60405180910390fd5b600073ffffffffffffffffffffffffffffffffffffffff168373ffffffffffffffffffffffffffffffffffffffff1614156121f6576040517f08c379a00000000000000000000000000000000000000000000000000000000081526004016121ed90613293565b60405180910390fd5b8273ffffffffffffffffffffffffffffffffffffffff168473ffffffffffffffffffffffffffffffffffffffff161415612265576040517f08c379a000000000000000000000000000000000000000000000000000000000815260040161225c90613153565b60405180910390fd5b81600560008673ffffffffffffffffffffffffffffffffffffffff1673ffffffffffffffffffffffffffffffffffffffff1681526020019081526020016000205410156122e7576040517f08c379a00000000000000000000000000000000000000000000000000000000081526004016122de90613133565b60405180910390fd5b600082905060008211156123d457818303905061236e8260056000600160009054906101000a900473ffffffffffffffffffffffffffffffffffffffff1673ffffffffffffffffffffffffffffffffffffffff1673ffffffffffffffffffffffffffffffffffffffff1681526020019081526020016000205461265290919063ffffffff16565b60056000600160009054906101000a900473ffffffffffffffffffffffffffffffffffffffff1673ffffffffffffffffffffffffffffffffffffffff1673ffffffffffffffffffffffffffffffffffffffff168152602001908152602001600020819055505b61242683600560008873ffffffffffffffffffffffffffffffffffffffff1673ffffffffffffffffffffffffffffffffffffffff168152602001908152602001600020546125fd90919063ffffffff16565b600560008773ffffffffffffffffffffffffffffffffffffffff1673ffffffffffffffffffffffffffffffffffffffff168152602001908152602001600020819055506124bb81600560008773ffffffffffffffffffffffffffffffffffffffff1673ffffffffffffffffffffffffffffffffffffffff1681526020019081526020016000205461265290919063ffffffff16565b600560008673ffffffffffffffffffffffffffffffffffffffff1673ffffffffffffffffffffffffffffffffffffffff16815260200190815260200160002081905550600760008573ffffffffffffffffffffffffffffffffffffffff1673ffffffffffffffffffffffffffffffffffffffff1681526020019081526020016000206040518060400160405280428152602001838152509080600181540180825580915050600190039060005260206000209060020201600090919091909150600082015181600001556020820151816001015550508373ffffffffffffffffffffffffffffffffffffffff168573ffffffffffffffffffffffffffffffffffffffff167fddf252ad1be2c89b69c2b068fc378daa952ba7f163c4a11628f55a4df523b3ef856040516125ee9190613333565b60405180910390a35050505050565b600080828403905083811115612648576040517f08c379a000000000000000000000000000000000000000000000000000000000815260040161263f906131f3565b60405180910390fd5b8091505092915050565b60008082840190508381101561269d576040517f08c379a0000000000000000000000000000000000000000000000000000000008152600401612694906132d3565b60405180910390fd5b8091505092915050565b60008054906101000a900473ffffffffffffffffffffffffffffffffffffffff1673ffffffffffffffffffffffffffffffffffffffff163373ffffffffffffffffffffffffffffffffffffffff1614612735576040517f08c379a000000000000000000000000000000000000000000000000000000000815260040161272c90613173565b60405180910390fd5b80600260006101000a81548173ffffffffffffffffffffffffffffffffffffffff021916908373ffffffffffffffffffffffffffffffffffffffff16021790555050565b60008054906101000a900473ffffffffffffffffffffffffffffffffffffffff1673ffffffffffffffffffffffffffffffffffffffff163373ffffffffffffffffffffffffffffffffffffffff1614612807576040517f08c379a00000000000000000000000000000000000000000000000000000000081526004016127fe90613173565b60405180910390fd5b806000806101000a81548173ffffffffffffffffffffffffffffffffffffffff021916908373ffffffffffffffffffffffffffffffffffffffff16021790555050565b60008135905061285981613457565b92915050565b60008135905061286e8161346e565b92915050565b60008135905061288381613485565b92915050565b60006020828403121561289b57600080fd5b60006128a98482850161284a565b91505092915050565b600080604083850312156128c557600080fd5b60006128d38582860161284a565b92505060206128e48582860161284a565b9150509250929050565b60008060006060848603121561290357600080fd5b60006129118682870161284a565b93505060206129228682870161284a565b92505060406129338682870161285f565b9150509250925092565b6000806040838503121561295057600080fd5b600061295e8582860161284a565b925050602061296f8582860161285f565b9150509250929050565b60006020828403121561298b57600080fd5b600061299984828501612874565b91505092915050565b60006129ae838361305d565b60408301905092915050565b6129c3816133be565b82525050565b60006129d482613379565b6129de818561339c565b93506129e983613369565b8060005b83811015612a1a578151612a0188826129a2565b9750612a0c8361338f565b9250506001810190506129ed565b5085935050505092915050565b612a30816133d0565b82525050565b6000612a4182613384565b612a4b81856133ad565b9350612a5b818560208601613413565b612a6481613446565b840191505092915050565b6000612a7c6014836133ad565b91507f496e73756666696369656e7420746f6b656e73210000000000000000000000006000830152602082019050919050565b6000612abc601c836133ad565b91507f416464726573736573206d75737420626520646966666572656e7421000000006000830152602082019050919050565b6000612afc6016836133ad565b91507f596f7520617265206e6f7420746865206f776e657221000000000000000000006000830152602082019050919050565b6000612b3c6031836133ad565b91507f4163636f756e742062616c616e6365206973206c657373207468616e2074686560008301527f206e756d626572206f6620746f6b656e730000000000000000000000000000006020830152604082019050919050565b6000612ba26047836133ad565b91507f7468652061646472657373206f6620746865206e6577206275795f6261636b2060008301527f6d75737420626520646966666572656e742066726f6d2074686520637572726560208301527f6e74206f6e652e000000000000000000000000000000000000000000000000006040830152606082019050919050565b6000612c2e603e836133ad565b91507f546865206d696e696d756d207175616e74697479206f6620746f6b656e73207460008301527f6861742063616e206265207472616e73666572726564206973203130302e00006020830152604082019050919050565b6000612c94600e836133ad565b91507f53756220756e646572666c6f77210000000000000000000000000000000000006000830152602082019050919050565b6000612cd4601b836133ad565b91507f546865206164647265737320616c7265616479206578697374732100000000006000830152602082019050919050565b6000612d146022836133ad565b91507f546865206d696e696d756d20746f6b656e207175616e7469747920697320313060008301527f302e0000000000000000000000000000000000000000000000000000000000006020830152604082019050919050565b6000612d7a602b836133ad565b91507f5175616e74697479206f6620746f6b656e7320616c6c6f77656420697320696e60008301527f73756666696369656e74210000000000000000000000000000000000000000006020830152604082019050919050565b6000612de06022836133ad565b91507f546865206d696e696d756d20746861742063616e20626520736f6c642069732060008301527f312e0000000000000000000000000000000000000000000000000000000000006020830152604082019050919050565b6000612e466010836133ad565b91507f496e76616c6964206164647265737321000000000000000000000000000000006000830152602082019050919050565b6000612e86604e836133ad565b91507f5468652061646472657373206f6620746865206e6577207472616e736163746960008301527f6f6e5f666565206d75737420626520646966666572656e742066726f6d20746860208301527f652063757272656e74206f6e652e0000000000000000000000000000000000006040830152606082019050919050565b6000612f12600d836133ad565b91507f53756d206f766572666c6f7721000000000000000000000000000000000000006000830152602082019050919050565b6000612f526044836133ad565b91507f5468652061646472657373206f6620746865206e6577206f776e6572206d757360008301527f7420626520646966666572656e742066726f6d207468652063757272656e742060208301527f6f6e652e000000000000000000000000000000000000000000000000000000006040830152606082019050919050565b6000612fde6047836133ad565b91507f54686520726563656976696e672061646472657373206d75737420626520746860008301527f652073616d6520617320746865206f6e652063616c6c696e672074686520667560208301527f6e6374696f6e21000000000000000000000000000000000000000000000000006040830152606082019050919050565b604082016000820151613073600085018261308c565b506020820151613086602085018261308c565b50505050565b613095816133fc565b82525050565b6130a4816133fc565b82525050565b6130b381613406565b82525050565b60006020820190506130ce60008301846129ba565b92915050565b600060208201905081810360008301526130ee81846129c9565b905092915050565b600060208201905061310b6000830184612a27565b92915050565b6000602082019050818103600083015261312b8184612a36565b905092915050565b6000602082019050818103600083015261314c81612a6f565b9050919050565b6000602082019050818103600083015261316c81612aaf565b9050919050565b6000602082019050818103600083015261318c81612aef565b9050919050565b600060208201905081810360008301526131ac81612b2f565b9050919050565b600060208201905081810360008301526131cc81612b95565b9050919050565b600060208201905081810360008301526131ec81612c21565b9050919050565b6000602082019050818103600083015261320c81612c87565b9050919050565b6000602082019050818103600083015261322c81612cc7565b9050919050565b6000602082019050818103600083015261324c81612d07565b9050919050565b6000602082019050818103600083015261326c81612d6d565b9050919050565b6000602082019050818103600083015261328c81612dd3565b9050919050565b600060208201905081810360008301526132ac81612e39565b9050919050565b600060208201905081810360008301526132cc81612e79565b9050919050565b600060208201905081810360008301526132ec81612f05565b9050919050565b6000602082019050818103600083015261330c81612f45565b9050919050565b6000602082019050818103600083015261332c81612fd1565b9050919050565b6000602082019050613348600083018461309b565b92915050565b600060208201905061336360008301846130aa565b92915050565b6000819050602082019050919050565b600081519050919050565b600081519050919050565b6000602082019050919050565b600082825260208201905092915050565b600082825260208201905092915050565b60006133c9826133dc565b9050919050565b60008115159050919050565b600073ffffffffffffffffffffffffffffffffffffffff82169050919050565b6000819050919050565b600060ff82169050919050565b60005b83811015613431578082015181840152602081019050613416565b83811115613440576000848401525b50505050565b6000601f19601f8301169050919050565b613460816133be565b811461346b57600080fd5b50565b613477816133fc565b811461348257600080fd5b50565b61348e81613406565b811461349957600080fd5b5056fea2646970667358221220343ec15c34431f5e4cf1af275381f6230607121750bfd84b8ead3b62d648b47864736f6c63430007000033",
  "immutableReferences": {},
  "source": "// SPDX-License-Identifier: MIT\npragma solidity 0.7.0;\npragma experimental ABIEncoderV2;\nimport './IERC20.sol';\nimport './Ownable.sol';\nimport './SafeMathLib.sol';\n\ncontract TreasuryBondsPlus is Ownable, IERC20 {\n\n  using SafeMath for uint;\n\n  string public constant name = 'Treasury Bonds Plus';\n  string public constant symbol = 'TB+';\n  uint8 public constant decimals = 2;\n\n  uint private _totalSupply;\n  uint public tokenPrice;\n\n  struct PurchaseRecord {\n    uint date;\n    uint quantity;\n  }\n\n  mapping(address => uint) private _balances;\n  mapping(address => mapping(address => uint)) private _allowed;\n  mapping(address => PurchaseRecord[]) private _purchaseRecords;\n  mapping(address => bool) private _approvedKYC;\n  mapping(uint8 => uint8) public yieldPerMonth;\n\n  event Mint(address indexed to, uint tokens);\n  event Burn(address indexed account, uint tokens);\n  event Repurchase(address indexed tokenOwner, uint tokens);\n\n  constructor(address _transactionFee, address _buyBack) {\n    _totalSupply = 200000 * 10 **uint(decimals);\n    tokenPrice = 1; // 1 Dollar\n    transactionFee = _transactionFee;\n    buyBack = _buyBack;\n\n    for (uint8 i=12; i <= 120; i++) {\n      uint8 mpy;\n      if (i <= 23) mpy = 50; // 0,50 %\n      else if (i <= 35) mpy = 60; // 0,60 %\n      else if (i <= 47) mpy = 70; // 0,70 %\n      else if (i <= 59) mpy = 80; // 0,80 %\n      else if (i <= 71) mpy = 90; // 0,90 %\n      else if (i <= 83) mpy = 100; // 1,00 %\n      else if (i <= 95) mpy = 120; // 1,20 %\n      else if (i <= 107) mpy = 140; // 1,40 %\n      else if (i <= 119) mpy = 160; // 1,60 %\n      else mpy = 180; // 1,80 %\n      yieldPerMonth[i] = mpy;\n    }\n\n    _balances[owner] = _totalSupply;\n    emit Transfer(address(0), owner, _totalSupply);\n  }\n\n  function totalSupply() public override view returns (uint) {\n    return _totalSupply;\n  }\n\n  function balanceOf(address tokenOwner) public override view returns (uint balance) {\n    return _balances[tokenOwner];\n  }\n\n  function allowance(address tokenOwner, address spender) public override view returns (uint remaining) {\n    return _allowed[tokenOwner][spender];\n  }\n\n  function transfer(address to, uint tokens) public override returns (bool success) {  \n    uint tax = 0;\n    if (msg.sender != owner) {\n      require(tokens >= 100 * 10 **uint(decimals), 'The minimum token quantity is 100.');\n      tax = _setTax(tokens);\n    } else require(tokens >= 1 * 10 ** uint(decimals), 'The minimum that can be sold is 1.');\n\n    _transfer(msg.sender, to, tokens, tax);\n    return true;\n  }\n\n  function approve(address spender, uint tokens) public override returns (bool success) {\n    require(msg.sender != address(0), 'Invalid address!');\n    require(spender != address(0), 'Invalid address!');\n\n    _allowed[msg.sender][spender] = tokens;\n    emit Approval(msg.sender, spender, tokens);\n    return true;\n  }\n\n  function transferFrom(address from, address to, uint tokens) public override returns (bool success) {\n    require(tokens >= 100 * 10 **uint(decimals), 'The minimum quantity of tokens that can be transferred is 100.');\n    require(_allowed[from][msg.sender] >= tokens, 'Quantity of tokens allowed is insufficient!');\n    require(to == msg.sender, 'The receiving address must be the same as the one calling the function!');\n\n    uint tax = _setTax(tokens);\n    _transfer(from, to, tokens, tax);\n    _allowed[from][msg.sender] = _allowed[from][msg.sender].sub(tokens);\n    return true;\n  }\n\n  function mint(address to, uint tokens) public onlyOwner {\n    require(to != address(0), 'Invalid address!');\n\n    _balances[to] = _balances[to].add(tokens);\n    _totalSupply = _totalSupply.add(tokens);\n    emit Mint(to, tokens);\n  }\n\n  function burn(address account, uint tokens) public onlyOwner {\n    require(account != address(0), 'Invalid address!');\n    require(_balances[account] >= tokens, 'Account balance is less than the number of tokens');\n\n    _balances[account] = _balances[account].sub(tokens);\n    _totalSupply = _totalSupply.sub(tokens);\n    emit Burn(account, tokens);\n  }\n\n  function repurchase(address tokenOwner, uint tokens) public onlyOwner returns (bool success) {\n    require(_balances[tokenOwner] >= tokens, 'Insufficient tokens!');\n\n    _balances[tokenOwner] = _balances[tokenOwner].sub(tokens);\n    _balances[buyBack] = _balances[buyBack].add(tokens);\n    \n    emit Repurchase(tokenOwner, tokens);\n    return true;\n  }\n\n  function purchaseRecords(address tokenOwner) public view onlyOwner returns (PurchaseRecord[] memory) {\n    return _purchaseRecords[tokenOwner];\n  }\n\n  function approveKYC(address account) public onlyOwner returns (bool success) {\n    require(!(_approvedKYC[account]), 'The address already exists!');\n\n    _approvedKYC[account] = true;\n    return true;\n  }\n\n  function getApprovedKYC(address account) public view onlyOwner returns (bool status) {\n    return _approvedKYC[account];\n  }\n\n  function newOwner(address account) public onlyOwner returns (bool success) {\n    require(account != owner, 'The address of the new owner must be different from the current one.');\n\n    address oldOwner = owner;\n    transferOwnership(account);\n    _balances[account] = _balances[oldOwner];\n    _balances[oldOwner] = 0;\n    OwnershipTransferred(account);\n    return true;\n  }\n\n  function newTransactionFee(address account) public onlyOwner returns (bool success) {\n    require(account != transactionFee, 'The address of the new transaction_fee must be different from the current one.');\n\n    address oldTransactionFee = transactionFee;\n    transferTransactionFee(account);\n    _balances[account] = _balances[oldTransactionFee];\n    _balances[oldTransactionFee] = 0;\n    TransactionFeeTransferred(account);\n    return true;\n  }\n\n  function newBuyBack(address account) public onlyOwner returns (bool success) {\n    require(account != buyBack, 'the address of the new buy_back must be different from the current one.');\n\n    address oldBuyBack = buyBack;\n    transferBuyBack(account);\n    _balances[account] = _balances[oldBuyBack];\n    _balances[oldBuyBack] = 0;\n    BuyBackTransferred(account);\n    return true;\n  }\n\n  function _setTax(uint tokens) private pure returns (uint) {\n    uint tokensInPercentage = tokens / 100;\n    uint tax;\n\n    if (tokens <= 10000 * 10 **uint(decimals)) tax = tokensInPercentage * 1 / 2; // 0,50%\n    else if (tokens <= 50000 * 10 **uint(decimals)) tax = tokensInPercentage * 7 / 20; // 0,35%\n    else if (tokens <= 100000 * 10 **uint(decimals)) tax = tokensInPercentage * 1 / 4; // 0,25%\n    else if (tokens <= 1000000 * 10 **uint(decimals)) tax = tokensInPercentage * 1 / 5; // 0,20%\n    else if (tokens <= 10000000 * 10 **uint(decimals)) tax = tokensInPercentage * 9 / 50; // 0,18%\n    else if (tokens <= 50000000 * 10 **uint(decimals)) tax = tokensInPercentage * 3 / 20; // 0,15%\n    else if (tokens <= 100000000 * 10 **uint(decimals)) tax = tokensInPercentage * 1 / 10; // 0,10%\n    else if (tokens <= 300000000 * 10 **uint(decimals)) tax = tokensInPercentage * 7 / 100; // 0,07%\n    else if (tokens <= 500000000 * 10 **uint(decimals)) tax = tokensInPercentage * 3 / 50; // 0,06%\n    else if (tokens <= 1000000000 * 10 **uint(decimals)) tax = tokensInPercentage * 1 / 20; // 0,05%\n    else tax = tokensInPercentage * 1 / 25; // 0,04%\n\n    return tax;\n  }\n\n  function _transfer(address sender, address recipient, uint tokens, uint tax) private {\n    require(sender != address(0), 'Invalid address!');\n    require(recipient != address(0), 'Invalid address!');\n    require(sender != recipient, 'Addresses must be different!');\n    require(_balances[sender] >= tokens, 'Insufficient tokens!');\n\n    uint tokensWithTax = tokens;\n    if (tax > 0) {\n      tokensWithTax = tokens - tax;\n      _balances[transactionFee] = _balances[transactionFee].add(tax);\n    }\n    \n    _balances[sender] = _balances[sender].sub(tokens);\n    _balances[recipient] = _balances[recipient].add(tokensWithTax);\n      \n    _purchaseRecords[recipient].push(PurchaseRecord({\n      date: block.timestamp,\n      quantity: tokensWithTax\n    }));\n\n    emit Transfer(sender, recipient, tokens);\n  }\n\n}",
  "sourcePath": "/home/caio/Desktop/projects/treasurybondsplus/tb-token/contracts/TreasuryBondsPlus.sol",
  "compiler": {
    "name": "solc",
    "version": "0.7.0+commit.9e61f92b.Emscripten.clang"
  },
  "schemaVersion": "3.3.1",
  "updatedAt": "2020-11-16T22:49:38.392Z",
  "networkType": "ethereum",
  "devdoc": {
    "kind": "dev",
    "methods": {},
    "version": 1
  },
  "userdoc": {
    "kind": "user",
    "methods": {},
    "version": 1
  }
}